:020000040800F2
:1000000070180020690D0008E1020008E3020008F2
:10001000E7020008EB020008EF0200080000000001
:10002000000000000000000000000000F3020008D3
:10003000F502000800000000F7020008F9020008BD
:10004000830D0008830D0008830D0008830D000850
:10005000830D0008830D0008830D0008830D000840
:10006000830D0008830D0008830D0008830D000830
:10007000830D0008830D0008830D0008830D000820
:10008000830D0008830D0008830D0008830D000810
:10009000830D0008830D0008830D0008830D000800
:1000A000830D0008830D0008830D0008830D0008F0
:1000B000830D0008830D000833080008830D000835
:1000C000830D0008830D0008830D0008830D0008D0
:1000D000830D0008DD0C000847060008830D0008AA
:1000E000830D0008830D0008830D0008830D0008B0
:1000F000830D0008830D0008830D0008830D0008A0
:10010000830D0008830D0008830D0008830D00088F
:10011000830D0008830D0008830D0008830D00087F
:10012000830D0008830D0008830D0008830D00086F
:1001300000F002F800F090F80AA090E8000C824469
:100140008344AAF10107DA4501D100F085F8AFF246
:10015000090EBAE80F0013F0010F18BFFB1A43F0A5
:100160000103184784320000A4320000103A24BF73
:1001700078C878C1FAD8520724BF30C830C144BF0C
:1001800004680C607047000000230024002500264E
:10019000103A28BF78C1FBD8520728BF30C148BFEA
:1001A0000B6070476E2901F0CB87702901F0FE8546
:1001B000662903F0AB80652903F0A880672903F066
:1001C000A5806129AFF3008003681B0A28BF41F0B6
:1001D0008001692901F06C85642901F06985752920
:1001E00001F066856F2902F0D782782901F0CA856F
:1001F000E92902F06F82E42902F06C82F52902F00D
:100200006982EF2902F0D482F82901F0C9850368D8
:10021000DB0928BF41F08001632902F0DE817329E8
:1002200002F0E381E32902F06183F32902F066839F
:10023000002070471FB501F011FF040000200021CD
:1002400003F038F8401C60600020002103F048F8FB
:10025000E0601FBD10B510BD02F02AFC1146FFF78B
:10026000E9FF00F00FF802F048FC03B4FFF7F2FFDB
:1002700003BC00F0D1FC000030BF72B662B680F360
:100280000888704700BF00F001FB4FF4E1312420E3
:1002900000F04DFA4FF4165000F0D1FC00F01CF9BC
:1002A00000F040F901F0D6FB142203A10AA001F0EE
:1002B000F1FB00BFFEE700003238514F496D717805
:1002C00042414950365678333468395771577972FC
:1002D00073446F3D00000000313234333031000090
:1002E000704700BFFEE700BFFEE700BFFEE700BFAC
:1002F000FEE7704770477047704700000CB500205C
:10030000019000906B48006840F4803069490860B3
:1003100000BF6848006800F4003000900198401C5D
:100320000190009818B90198B0F5A06FF1D161481B
:10033000006810F4003F02D00120009001E000208E
:1003400000900098012842D15B48006840F01000FE
:10035000594908600846006820F003000860084614
:10036000006840F002000860524840685149486007
:100370000846406848600846406840F4806048602D
:100380000846406820F47C1048600846406840F405
:10039000E81048600846006840F08070086000BFC0
:1003A0004448006810F0007FFAD04248406820F0CE
:1003B0000300404948600846406840F00200486039
:1003C00000BF3C48406800F00C000828F9D10CBD83
:1003D00010B5FFF793FF10BD10B53648006840F028
:1003E00001003449086008464068344908403149F2
:1003F000486008460068324908402E4908600846AF
:10040000006820F4802008600846406820F4FE0060
:1004100048604FF41F008860FFF7DAFF4FF000607C
:100420002849086010BD10B5002100200022214B92
:100430005B6803F00C0121B1042906D0082928D1FA
:1004400007E0214B214C236027E01F4B1F4C23600A
:1004500023E0184B5B6803F47010164B5B6803F4E1
:100460008032022303EB904022B9194B4343174CCF
:1004700023600DE00F4B5B6813F4003F04D0144B76
:100480004343124C236003E00F4B43430F4C236064
:1004900003E00D4B0D4C236000BF00BF054B5B68B4
:1004A000C3F303130B4CE15C084B1B68CB40074CB8
:1004B000236010BD00100240002002400000FFF841
:1004C000FFFFF6FE08ED00E000127A0000000020B9
:1004D00000093D000400002008B50121482000F07B
:1004E000E7FF2020ADF8000010208DF80300032066
:1004F0008DF802006946094800F024FD20210748D4
:1005000000F0CBFD2020ADF800006946044800F063
:1005100019FD2021024800F0C0FD08BD000C01407B
:100520000018014008B50121442000F0C1FF1C2043
:10053000ADF8000048208DF803006946354800F00A
:1005400001FD0120ADF8000028208DF80300694668
:10055000314800F0F7FC08BD10B5044614B1012085
:100560002E4908702D480078002837D010212948DE
:1005700000F079FD78B10821264800F074FD50B1F3
:100580000421244800F06FFD28B10121224800F029
:100590006AFD012822D10A2000F0B4F900201F4989
:1005A000087010211B4800F05EFD08B9012010BD45
:1005B0000821184800F057FD08B90220F7E7042188
:1005C000144800F050FD08B90320F0E7012112485B
:1005D00000F049FD01281BD10420E8E710210D4857
:1005E00000F041FD012813D108210A4800F03BFD2D
:1005F00001280DD10421074800F035FD012807D15D
:100600000121054800F02FFD10B9012003490870B1
:100610000020CCE700180140000801401400002031
:1006200050B19049098841F001018E4A11800021A2
:100630008C4A2432118005E08A49098821F00101A1
:10064000884A1180704700B58748008810F0200F55
:1006500021D08548001D0088C3B284480088B0F5C9
:10066000806F12DA00207F49243108807F4800889B
:1006700010B90120FFF7D4FF7C4801880088401C96
:100680007A4A10807A48435405E07848008840F45C
:1006900000407649088000BD70B505460C46754897
:1006A000C06940F004007349C8616E482C30058071
:1006B000001F04806B480C30008840F0010069493D
:1006C0000C3108806748008840F0010065490880C7
:1006D00002231E220321012000F058F970BD70B5DD
:1006E00004460E4615466348406940F001006149E2
:1006F0004861052000F0E3F8A660E5600020206076
:10070000206840F010002060206820602068206091
:10071000206840F080002060206820602068206011
:10072000206840F4805020602068206070BD70B563
:1007300005460C464F48806940F004004D498861E9
:100740004D48006820F47F404B4908600846006827
:1007500040F40B4008604748C06940F40030454908
:10076000C8610846006940F4003008610846006925
:1007700020F40030086141486843B0FBF4F03A4986
:1007800008310880081D008842F20C0108433649F0
:100790000C3108808020344914310880384A3249AD
:1007A000091D3848FFF79BFF2F480C30008840F4A4
:1007B00080702D490C3108800846008840F02000E8
:1007C0000880022326220321184600F0DFF841F6B4
:1007D0001F4140F2E730FFF75FFF00202349088008
:1007E0000120FFF71DFF70BD026822F001020260C8
:1007F0004160026842F00102026070470FB438B5F0
:1008000005A800901E48009A049901F0E1F9002023
:10081000009000BF1C4800680028FBD1184801F078
:10082000A9FB84B221461748FFF7DEFF38BC5DF80C
:1008300014FB00B50B481030008810F0010F10D0E9
:100840000A48008840F400400849088005481030F4
:10085000008820F001000349103108800020FFF7D4
:10086000DFFE00BD000800400044004016000020EC
:1008700048040020001002400008014040420F00E0
:1008800048000020800002408400024010B56FF054
:10089000040000F0D9FA2D4800682D49B0FBF1F0B2
:1008A0002C4908700846007800EB4001C1EBC010ED
:1008B0004FF6FF7101EAC0002749088010BD0146CC
:1008C000244A12784A434FF0E0235A6100229A6189
:1008D0001A46126942F001021A6100BF4FF0E0228D
:1008E000106910F0010F02D010F4803FF6D04FF0E5
:1008F000E022126922F001024FF0E0231A61002287
:100900009A6170470146144A12884A434FF0E02327
:100910005A6100229A611A46126942F001021A6174
:1009200000BF4FF0E022106910F0010F02D010F468
:10093000803FF6D04FF0E022126922F001024FF022
:10094000E0231A6100229A61704700000000002035
:1009500000127A00180000201A000020A14A0A4064
:100960000243A14B1A6070470146072323EA0102A4
:1009700012029D4B1B1D18684FF6FF0318409B4B3E
:1009800018431043984B1B1D186070472DE9F04128
:100990000746884614461D462846FFF7E5FFC5F181
:1009A000040007FA00F60F20284100EA0800064379
:1009B00006F00F06202C0CDA8D4801684FF001007C
:1009C00000FA04F041EA00014FF0E020C0F8001105
:1009D0000DE088480068A4F120014FF0010202FAFE
:1009E00001F240EA02004FF0E021C1F80401824820
:1009F000005D40EA061080490855BDE8F08170B5F9
:100A000004460B46CE1701EB9676B010CE1701EBDD
:100A10009676B610A1EB8606B606350E774B9B6927
:100A200043F00103754EB3614FEAB63353F82030FB
:100A30000F26AE40B343724E46F82030334653F88B
:100A4000203004FA05F633436D4E46F820306D4BE6
:100A50001E6801238B401E436A4B1E6012F0010F7B
:100A600008D0684B0C331B6801268E403343654E1B
:100A70000C36336012F0020F08D0624B08331B684B
:100A800001268E4033435F4E0836336070BD00B59B
:100A900000205A490861C86014204861002088611C
:100AA000C8610846006840F00100086008464068D8
:100AB0005549084051494860084600685349084074
:100AC0004E4908600846006820F480200860084607
:100AD000406820F4FE0048600020886000214FF04C
:100AE0000060FFF73BFF00BD10B53F4808300068CD
:100AF00040F004003C49083108604048C06940F0BB
:100B000080503E49C8614248406840F48070404986
:100B100048600846006840F0040008600846006825
:100B200040F002000860FFF7A7FB10BD2F48001D32
:100B30002D49091D08607047014649062F4A9269F0
:100B400042F001022D4B9A612D4A083A526822F078
:100B5000E0622B4B083B5A601A4652680A435A60BF
:100B6000704730B504460025FFF791FF2348006821
:100B700040F480302149086000BF20480068400CE4
:100B8000FBD04FF480601D494860A01EC4B20846E7
:100B9000406840EA844048600846406840F480303D
:100BA00048601C48006840F032001A490860134849
:100BB000006840F080701149086000BF0F4800686D
:100BC000400EFBD00D48406840F002000B494860E1
:100BD00005E00A484068C0F3870505F00305022DCB
:100BE000F7D130BD80FFFF1F08ED00E00000FA05DF
:100BF00000E100E004E100E000E400E00010024059
:100C000008000140000401400000FFF8FFFFF6FE6D
:100C10000070004000200240014600BF704770B5E0
:100C200004460D4600BF40214B4800F053FE00280B
:100C3000F9D0E1B2484800F0DFFD204670BD10B5A4
:100C400086B00446012144F2040000F031FC424821
:100C500000F096FC4FF40070ADF8140003208DF8FE
:100C6000160018208DF8170005A93C4800F06AF915
:100C70004FF48060ADF8140004208DF8170005A92A
:100C8000364800F05FF901940020ADF80800ADF897
:100C90000A00ADF80C00ADF810000C20ADF80E0005
:100CA00001A92D4800F0AFFC25208DF8000003209D
:100CB0008DF801008DF8020001208DF803006846D0
:100CC00000F077F8012240F22551234800F033FD6F
:100CD0000121214800F023FD06B010BD10B540F2FF
:100CE00025511D4800F00CFE10B31B4800F088FD94
:100CF000C4B21B48008810F4004F2BD1184800885C
:100D000010F4804F0CD00A2C03D000201449088026
:100D100020E01348008840F400401149088019E0A1
:100D20000D2C06D10E48008840F480400C49088004
:100D300010E00B480088C0F30D000A490C54084825
:100D40000088401C0649088008460088C72801DD45
:100D50000020088010BD000000380140000801405C
:100D60001C00002048080020094880470948004727
:100D7000FEE7FEE7FEE7FEE7FEE7FEE7FEE7FEE74B
:100D8000FEE7FEE704480549054A064B70470000A8
:100D9000D9030008310100087012002070180020EB
:100DA000701400207014002031490143314A116051
:100DB000704770B5002100230F22C4780CB32D4C6E
:100DC000246804F4E064C4F5E064210AC1F104037A
:100DD000CA40447804FA03F184781440214309019D
:100DE000254C0678A155047804F01F050124AC4079
:100DF00005786D114FF0E02606EB8505C5F800413A
:100E000009E0047804F01F050124AC401B4D06786E
:100E1000761145F8264070BD194A0A400243154B29
:100E20001B1F1A60704739B1124A121D1268024323
:100E3000104B1B1D1A6006E00E4A121D12688243F9
:100E40000C4B1B1D1A607047042808D14FF0E0219D
:100E5000096941F004014FF0E022116107E04FF011
:100E6000E021096921F004014FF0E022116170478F
:100E70000000FA050CED00E000E400E080E100E095
:100E800080FFFF1F10B50446CA48844208D10121E3
:100E9000042000F027FB0021042000F023FB46E0A3
:100EA000C548844208D10121082000F01BFB002125
:100EB000082000F017FB3AE0C048844208D1012125
:100EC000102000F00FFB0021102000F00BFB2EE0A3
:100ED000BB48844208D10121202000F003FB0021FF
:100EE000202000F0FFFA22E0B648844208D1012118
:100EF000402000F0F7FA0021402000F0F3FA16E05D
:100F0000B148844208D10121802000F0EBFA002191
:100F1000802000F0E7FA0AE0AC48844207D10121C2
:100F2000801500F0DFFA0021A01500F0DBFA10BDFB
:100F300010B50121084600F0D5FA0021012000F08B
:100F4000D1FA10BD2DE9F04102460025002600200F
:100F500000230024002791F803C00CF00F0591F83E
:100F600003C01CF0100F03D091F802C04CEA050535
:100F700091F800C0BCF1000F31D0146800202BE0C4
:100F80004FF0010C0CFA00F3B1F800C00CEA0306B4
:100F90009E4220D183004FF00F0C0CFA03F7BC43A4
:100FA00005FA03FC4CEA040491F803C0BCF1280FD5
:100FB00006D14FF0010C0CFA00FCC2F814C00AE094
:100FC00091F803C0BCF1480F05D14FF0010C0CFAA9
:100FD00000FCC2F810C0401C0828D1D31460B1F83E
:100FE00000C0BCF1FF0F34DD546800202EE000F19A
:100FF000080C4FF0010808FA0CF3B1F800C00CEA35
:1010000003069E4221D183004FF00F0C0CFA03F728
:10101000BC4305FA03FC4CEA040491F803C0BCF19C
:10102000280F05D100F1080C08FA0CF8C2F814805A
:1010300091F803C0BCF1480F07D100F1080C4FF044
:10104000010808FA0CF8C2F81080401C0828CED31A
:101050005460BDE8F0814FF6FF710180022181707C
:101060000421C17070470246002093680B4201D0F2
:10107000012000E0002070470146886880B2704778
:1010800002460020D3680B4201D0012000E000207E
:1010900070470146C86880B270470161704741617E
:1010A00070470AB1016100E041617047C16070475B
:1010B0004FF480320A438261816182618269826970
:1010C000704702460020424B18684FF68073184064
:1010D00040EA021008433E4B186070473D49C86122
:1010E0007047F0B50A46002300240021002500F0D7
:1010F0000046B6F1004F02D1354EF16901E0344EA1
:101100007168C0F3034583B200F44016B6F5401F82
:1011100008D121F070612E4E766826F070662C4F53
:101120007E6012E000F48016B6F5801F06D103261B
:1011300006FA05F4A14341F0706106E0460D360160
:1011400003FA06F6B14341F0706122B1460D360153
:1011500003FA06F6314300F00046B6F1004F02D123
:101160001B4EF16101E01A4E7160F0BD30B50022F6
:101170008B071C0F0F2303FA04F2154B08338C1056
:1011800053F824309343124C08348D1044F8253022
:1011900023468C1053F824308C07240F00FA04F4F3
:1011A00023430B4C08348D1044F8253030BD0A49D8
:1011B0000860704700080140000C01400010014029
:1011C0000014014000180140001C014000200140B3
:1011D0000000014000002042DC002042DD480068A1
:1011E00040F00100DB49086008464068DA490840E1
:1011F000D849486008460068D8490840D549086081
:101200000846006820F4802008600846406820F402
:10121000FE0048604FF41F0088607047CD490968A0
:1012200021F48031CB4A11601146096821F48021F4
:101230001160B0F5803F03D0B0F5802F0ED106E0ED
:10124000C449096841F48031C24A116007E0C149CC
:10125000096841F4A021BF4A116000E000BF00BF4F
:10126000704710B501460022002300204A11012AD0
:1012700002D1B84C236806E0022A02D1B54C236A99
:1012800001E0B44C636A01F01F02012494401C4247
:1012900001D0012000E0002010BD38B500200090F2
:1012A0000024002500BF3120FFF7DBFF0546009832
:1012B000401C00900098B0F5A06F01D0002DF2D036
:1012C0003120FFF7CEFF08B1012400E000242046C2
:1012D00038BD014600209F4A106820F0F80040EA1F
:1012E000C100106070479E490860704702460020A8
:1012F000984B586820F47C1042EA01031843954B40
:101300005860704796490866704701460020914A28
:10131000506820F003000843506070478D484068D3
:1013200000F00C007047014600208A4A506820F007
:10133000F00008435060704701460020854A50681D
:1013400020F4E06008435060704701460020814A65
:10135000506820F4605040EAC1005060704729B1E5
:101360007C4A527A02437B4B5A7204E0794A527AA1
:101370008243784B5A7270477A4908607047014639
:101380000020744A506820F4404008435060704781
:101390000021754A11706F4A82F82010012802D08E
:1013A000042808D103E001216F4A117004E00521EF
:1013B0006D4A117000E000BF00BF70476B490860C4
:1013C00070476449096A0143624A1162704767497C
:1013D00044390860704730B5002100220024002302
:1013E0005C4D6D6805F00C0121B1042905D0082978
:1013F00023D105E05E4D056022E05D4D05601FE0F4
:10140000544D6D6805F47012524D6D6805F48034CA
:10141000022505EB92421CB9564D554305600BE081
:101420004C4D6D6815F4003F03D0524D5543056097
:1014300002E04F4D5543056002E04D4D056000BF91
:1014400000BF444D6D6805F0F00109094A4D6B5C21
:101450000568DD4045603F4D6D6805F4E061090AAF
:10146000454D6B5C4568DD4085603A4D6D6805F41F
:101470006051C90A404D6B5C4568DD40C560354D23
:101480006D6805F44041890B3C4D6B5CC568B5FB4C
:10149000F3F5056130BD29B12E4A526902432D4B47
:1014A0005A6104E02B4A526982432A4B5A617047C1
:1014B00029B1284A92690243264B9A6104E0254AE1
:1014C00092698243234B9A61704729B1214AD269BC
:1014D0000243204BDA6104E01E4AD26982431D4B6D
:1014E000DA61704729B11B4AD2680243194BDA60AE
:1014F00004E0184AD2688243164BDA60704729B17B
:10150000144A12690243134B1A6104E0114A12692A
:101510008243104B1A617047144940390860704784
:101520000F49C86470470B49C87170470948406A41
:1015300040F0807007494862704701460020054A24
:1015400092680A4201D0012000E000207047014962
:1015500088727047001002400000FFF8FFFFF6FE9F
:1015600000004242D8004242201002408004424221
:1015700000127A0000093D00240000203400002001
:1015800010B50446FB48844209D101218803FFF7C6
:10159000A9FF00214FF48040FFF7A4FF32E0F64896
:1015A000844209D101214804FFF7A9FF00214FF42B
:1015B0000030FFF7A4FF25E0F048844209D1012163
:1015C0008804FFF79CFF00214FF48020FFF797FF6E
:1015D00018E0EB48844209D10121C804FFF78FFFCE
:1015E00000214FF40020FFF78AFF0BE0E54884421A
:1015F00008D101210805FFF782FF00214FF4801078
:10160000FFF77DFF10BD2DE9F04786B005460E4679
:101610000024A24600BFA1460027B08900B100BF48
:101620002F462C8A4CF6FF700440F08804432C822D
:10163000AC894EF6F3100440B088318908437189B3
:1016400008430443AC81AC8A4FF6FF400440B089A4
:101650000443AC8201A8FFF7BEFEC648874202D110
:10166000DDF810A001E0DDF80CA0A88910F4004F0F
:1016700008D00AEBCA0000EB0A1031684900B0FB41
:10168000F1F807E00AEBCA0000EB0A1031688900A4
:10169000B0FBF1F86420B8FBF0F0040120096421EC
:1016A00001FB1089A88910F4004F08D0322000EB0C
:1016B000C900B0FBF1F000F00700044308E032205D
:1016C00000EB09106421B0FBF1F000F00F000443BF
:1016D0002C8106B0BDE8F0874FF41651016000215F
:1016E0008180C18001810C2141810021818170476D
:1016F00010B502460020108A4FF2FF0318400B88F5
:101700004C8823438C882343CC882343184310827E
:1017100010BD0021018041808180C180704721B1CE
:10172000828942F40052828104E082894DF6FF737F
:101730001A4082817047F0B5034600240026002538
:101740000020A1F510676A3F00D100BF1846C1F321
:10175000421401F01F06012707FA06F5012C01D1FA
:101760000C3004E0022C01D1103000E014301AB12A
:1017700007682F43076002E00768AF430760F0BDCA
:101780001AB1838A0B43838202E0838A8B4383826C
:101790007047028A4FF6F0731A400282028A0A43A7
:1017A0000282704782894FF2FF731A4082818289D8
:1017B0000A438281704721B1828942F0020282810C
:1017C00004E082894FF6FD731A4082817047028AD5
:1017D0004FF6DF731A400282028A0A430282704780
:1017E00021B1028A42F48042028204E0028A4BF66E
:1017F000FF731A4002827047C1F30802828070476B
:1018000001468888C0F308007047818941F00101D2
:1018100081817047028BD2B20283028B42EA01229D
:1018200002837047028B02F47F420283028B0A43D9
:101830000283704721B1828A42F02002828204E052
:10184000828A4FF6DF731A408282704721B1828A02
:1018500042F01002828204E0828A4FF6EF731A404F
:101860008282704721B1828A42F00802828204E0BB
:10187000828A4FF6F7731A408282704721B18289BB
:1018800042F40042828103E08289C2F30E02828127
:10189000704721B1828A42F40062828204E0828A27
:1018A0004FF2FF731A4082827047828A4FF6FB73B1
:1018B0001A408282828A0A438282704721B1828AD8
:1018C00042F00202828204E0828A4FF6FD731A40DF
:1018D0008282704702460020B1F5007F00D100BF30
:1018E00013880B4201D0012000E00020704701F472
:1018F0000072B2F5007F00D100BFCA43028070477A
:1019000070B502460024002300250020A1F51066D2
:101910006A3E00D100BFC1F3421501F01F0301264A
:1019200006FA03F3012D02D19689334006E0022D19
:1019300002D1168A334001E0968A33400C12012608
:1019400006FA04F41688344013B10CB1012000E00B
:10195000002070BD10B500220023A1F510646A3C80
:1019600000D100BF0A1201249440A3B2DC430480DA
:1019700010BD000000380140004400400048004015
:10198000004C00400050004010B504465748008805
:1019900010F4004F0ED0002054490988C1F30E0105
:1019A000534A5054114653A000F024F914B10020BA
:1019B0004E49088010BD70B5044600254B4800888C
:1019C00010F4004F0BD0002048490988C1F30E01E4
:1019D000474A50542146104600F0BAFA05462846B8
:1019E00070BD2DE9F04104460E4615460027002043
:1019F0003E490880FF2C07D800BF3F4800680028F8
:101A0000FBD13E490C8003E021463DA0FEF7F6FEE7
:101A1000C6B1BDB10FE00A20FEF774FF334800885D
:101A200010F4004F07D03046FFF7C5FF00B106E0C5
:101A300000202E490880681E80B20500EBD100BF4F
:101A400005B901273A4621462FA000F0D3F83846C1
:101A5000BDE8F08110B564222FA130A0FFF7C1FFCF
:101A600064222DA12EA0FFF7BCFF64222AA130A082
:101A7000FFF7B7FF642228A134A0FFF7B2FF64226A
:101A800025A135A0FFF7ADFF642223A138A0FFF701
:101A9000A8FF10BD2DE9F0410746884614460025F1
:101AA000394800F067FA06463146374800F081FAB7
:101AB000002036490860642217A135A0FFF791FF86
:101AC000642215A136A0FFF78CFF00BF09E0642057
:101AD000FEF718FF3CA12C4800F03AFA00B102E0F2
:101AE0006D1CA542F3DB00BFBDE8F08116000020AD
:101AF0004804002025730000840002400444004094
:101B000025730D0A00000000257320203D3D3D3D5A
:101B10002564200A000000004F4B000041540000E3
:101B200041542B4347434C4153533D224222000032
:101B300041542B434744434F4E543D312C2249508E
:101B4000222C22434D4E45542200000041542B4389
:101B5000474154543D31000041542B4349504353B5
:101B600047503D312C22434D4E4554220000000089
:101B700041542B434C504F52543D22544350222C3D
:101B80002232303030220000100D00203C000020B6
:101B900041542B4349504D4F44453D310000000016
:101BA00041542B43495053544152543D22544350C5
:101BB000222C223138332E3233302E34302E33392A
:101BC000222C2238373622003E00000070470000E9
:101BD0001CB50C46064B7B4469460090204600F03D
:101BE000DAFC04460020694600F0E8FC20461CBDF3
:101BF000E30900000FB4044910B503AA029800F0ED
:101C0000F9FC10BC5DF814FB2000002070B5044600
:101C100085690068C10601D5302600E02026C0078E
:101C200008D070BDD4E9012130469047206A00F108
:101C3000010020626D1EF5D570BD70B50446856942
:101C40000078C00708D170BDD4E901212020904759
:101C5000206A00F1010020626D1EF5D570BD70B5DF
:101C60000C460546012A05D02878800600D5EA6989
:101C7000002302E0012305E05B1C934202D2E05CFA
:101C80000028F9D1A869E618C01AA861286A184482
:101C900028622846FFF7BAFF04E0D5E9012114F8CD
:101CA000010B9047B442F8D32846FFF7C6FF70BD3A
:101CB0002DE9F0410646002410687529314616A525
:101CC00011D000F0CFF9002803DAC0F1000013A50D
:101CD00007E031688A0701D511A502E0490704D55C
:101CE00010A5012401E000F0C6F900210A2306F145
:101CF000240707E0B0FBF3F203FB12003030785406
:101D00001046491C0028F5D123462A463046BDE836
:101D1000F04100F0B9B90000000000002D00000003
:101D20002B00000020000000F0B40D4601880905DA
:101D300002D5234C7C4402E0214C7C440E3400212B
:101D400000F124060BE002F00F074FEA1212E75DE4
:101D500042EA03724FEA1313775401F1010152EA88
:101D60000307F0D102780023120704D5702D06D0A6
:101D700009B1113402232246F0BC00F085B91034B9
:101D80000123F8E770B504460D462146106800F0BF
:101D900072F9024629462046BDE870400023C3E799
:101DA000D21D22F00703D3E90023BDE703681268C0
:101DB00043F0200303600823C3610023B4E700005D
:101DC000D81500002DE9F05F894604464FF0000A5F
:101DD000DFF878B1FB44C0F820A02046E1688847CE
:101DE000002875D0252806D0D4E901219047206A23
:101DF000401C2062F1E700265F462046E1688847E4
:101E00002028054608DB312D06D207EB050010F827
:101E1000200C08B10643F0E7B00701D526F0040610
:101E2000C4F81CA00027C4F818A02A2D09D0284601
:101E300001F038FA38B304EB8708303DC8F8185081
:101E400019E059F8041B204604EB87029161E16810
:101E50008847012F054618D1E069002820DA26F0CE
:101E600020061DE0D8F8180000EB800005EB4000CC
:101E70003038C8F818002046E1688847054601F068
:101E800011FA0028EED1012F0AD02E2D08D12046BC
:101E9000E16888477F1C0546022F46F02006C4DB18
:101EA000A069002803DA404246F00106A061F0076D
:101EB00001D026F010066C2D0BD0682D09D04C2DCA
:101EC00039D06A2D35D0742D35D07A2D33D016E027
:101ED00038E0E1682F4620468847B842054609D1D8
:101EE0006C2F26D04FF48060E16806432046884777
:101EF000054604E06C2F1AD04FF4807006430DB3F2
:101F0000A5F14100192802D8203546F400664A465A
:101F10002946204626604E46FEF744F980B1012846
:101F20000BD0F61D26F0070000F1080955E7402008
:101F3000E4E78020D8E70020D6E706F104094CE763
:101F4000284651E7206ABDE8F09F000060150000B8
:101F500030B505460B462A4613F8014B12F8010B23
:101F600008B1A042F8D01CB1002802D06D1CF1E7E6
:101F7000284630BD10B5431C02E010F8011B71B1BA
:101F80008107FAD14FF0013202C88C1A8C4314EA4F
:101F9000C211F9D0C01A0A0603D0C01E10BDC01A63
:101FA00010BD0A0401D0801E10BD0902FCD0401EE5
:101FB00010BD4FF000020429C0F0128010F0030C95
:101FC00000F01B80CCF1040CBCF1020F18BF00F82C
:101FD000012BA8BF20F8022BA1EB0C0100F00DB8DB
:101FE0005FEAC17C24BF00F8012B00F8012B48BF39
:101FF00000F8012B70474FF0000200B513469446DD
:102000009646203922BFA0E80C50A0E80C50B1F150
:102010002001BFF4F7AF090728BFA0E80C5048BF64
:102020000CC05DF804EB890028BF40F8042B08BF02
:10203000704748BF20F8022B11F0804F18BF00F8FE
:10204000012B7047704770477047704710B500F01C
:1020500005F8001D10BD00BF5D120000004870476C
:102060003012002009684A0501D540B27047C90501
:10207000FCD500B2704709684A0501D5C0B2704767
:10208000C905FCD580B270472DE9F0470D46994649
:102090009246044600F124080168880604D5E069E8
:1020A00021F01001216000E00120A84202DDA0EB38
:1020B000050700E00027A16907EB050202EB090014
:1020C000A1EB0000A0612078C00602D42046FFF7F3
:1020D0009DFD002608E0D4E901211AF8060090478A
:1020E000206A401C761C20624E45F4DB2078C00636
:1020F0000AD52046FFF78AFD06E0D4E90121302009
:102100009047206A401C2062381EA7F10107F4DCCA
:1021100007E0D4E9012118F805009047206A401C27
:102120002062281EA5F10105F3DC2046FFF785FD9E
:102130002078000602D50220BDE8F0870120FBE7E9
:1021400011680268006A530501D508700BE0D305D9
:1021500001D5088007E0130603D5C217C1E90002C4
:1021600001E0520608600120704770472DE9FF4FDB
:102170000C461E464FF0FF378BB0D2E90001DDF868
:1021800060800A908A46C1F30A5505B93D46002190
:1021900008464FF00000BAF1000F00F4400005DAE5
:1021A00000EB80004FF4400101EA50004FEA9059E3
:1021B000B9F1010F00DDB9460A9850EA4A000ED085
:1021C00044F61050A5F2FF3545432F14B8F1000F27
:1021D0001ED07542291E1EDDC9F100021CE0B8F1B7
:1021E000010F4FF0000001D0302103E0F24305E081
:1021F0002154401CB042FBDB304600220021215418
:102200000B99C1F80880C1E900200FB0BDE8F08F3C
:10221000BD1B6D1CDEE74A4600DA694206A800F0E5
:1022200071FB06AB07CB03AB07C350460A9900F01E
:102230006AFC8DE80700A0F500501F380090039855
:10224000002D09DD42F21F014A46084403A903900C
:10225000684600F0C9FE08E0A0F500504A461F3865
:1022600003A90390684600F0D3FE8DE80700000440
:10227000000C03D04FF0FF30410800E01046B8F1E9
:10228000000F03D00022009215461FE0751E06D4F1
:1022900000F09CFA02F1300262556D1EF8D5B3468B
:1022A0000122084302D000227F1C04E0207830285D
:1022B00001D100227F1E002A099787D01DE0112D31
:1022C00007DA00F083FA303262556D1C50EA0102E1
:1022D000F5D108430FD10021681E05E0235C625C44
:1022E0006354491C2254401E8142F7DBAB46A81BB5
:1022F000401E099001E0009848B1002004F80B004E
:102300000B98099AC0F80880C0E9002B7DE71126D8
:102310004FF000085AE72DE9F04F88460446D21DD9
:1023200022F0070191B0D1E90001CDE90A0100F0E6
:10233000A5FF02460B98C00F01D02D2007E02068B2
:10234000810701D52B2002E0202101EAC000032AE9
:10235000099001D0072A05DB03464146204600F0DC
:102360007BFA0FE12078800601D5E06900E00620C5
:10237000B8F1650F814606D0B8F1660F18D0B8F1F4
:10238000670F72D132E00020B9F1110F009001DB2C
:10239000112301E009F101030AAA01A90CA8FFF722
:1023A000E5FEDDE90C70002609F10105834648E0F1
:1023B00001204B4600904FF000470AAA01A90CA843
:1023C000FFF7D4FEDDE90DB00C995D46002618B983
:1023D00009F1010001EB0005B9EB050003D4C0F1E0
:1023E000FF3609F10105A5EB09002BE0B9F1010F5A
:1023F00001DA4FF001090020B9F1110F00904846B1
:1024000001DD112300E003460AAA01A90CA8FFF789
:10241000ADFEDDE90C704D460026834620780007AE
:102420000AD4AB4500DA5D4601A8012D04DD41194F
:1024300011F8011C302907D04F4502DA17F1040FBB
:1024400004DA0120824610E06D1EEEE7002F02DC68
:10245000ED1B3E4403E0781CA84200DD0546A7EBD7
:10246000060000F1010A4FF000472078000703D46E
:10247000AA4501DB4FF0FF3A0021B7F1004F0DF103
:1024800043088DF8431023D002202B23002F01DABC
:102490007F422D234FF00A0C011EA0F1010000DC49
:1024A0004FB197FBFCF10CFB11720F4602F13002A9
:1024B00008F8012DF0E7A8F1010003702188090553
:1024C00001D5452100E06521A0F1010800F8011CBB
:1024D00009980FA9A1EB080707F1070700B1012030
:1024E00000EB050101EBEA70A1693844A1EB0000A3
:1024F000A0F10100A0612078C00602D42046FFF7B9
:1025000085FB099830B1D4E901219047206A00F198
:10251000010020622078C00620D52046FFF776FB18
:102520001CE0002E04DBB34502DD01A8805D00E065
:102530003020D4E901219047206A761C401CBAF172
:10254000010A20620AD1FFF789FDC0680168405C7A
:10255000D4E901219047206A401C2062281EA5F181
:102560000105DEDC07E0D4E9012118F8010B9047F2
:10257000206A401C2062381EA7F10107F3DC2046C8
:10258000FFF75BFB022011B040E6000001694A1C26
:1025900002610878704700B58FB0CDE901310021A4
:1025A000059105497944CDE9031011466846FFF7C6
:1025B00009FC0FB000BD0000E5FFFFFF0A6802F84C
:1025C000010B0A60704710B5436913B1AFF3008087
:1025D00001E0FFF744FB012010BD127800F1240157
:1025E0000A7000224A700122EDE711684FF0FF32B5
:1025F000E9E70000074B70B50D467B44FFF7CBFFC2
:102600000446284600F0F0F910B14FF0FF3070BDDD
:10261000204670BD21E6FFFF2DE9FF5F15468A4683
:102620000446DFF8AC80F8440027D8E900103E46A5
:10263000CDE9001011E03AF816106A4602A800F041
:10264000D7F9411C07D02178890603D5E2693918EA
:1026500091420ED8074406F101062078800602D583
:10266000E069B84205DDAE42E5DB3AF81600002825
:10267000E1D1A069C01BA0612046FFF7C7FAD8E9E5
:102680000010CDE90010002016E03AF818106A4654
:1026900002A800F0ADF98146401C0BD000250DF1D9
:1026A000080B05E0D4E901211BF8050090476D1CDB
:1026B0004D45F7D308F10100B0428046E5DB206AC2
:1026C000384420622046FFF7B8FABDE8FF9F0000BB
:1026D000220D00002DE9F0418046D21D22F00702B4
:1026E0000025D2E90002F52914A612D0002A06DA44
:1026F0000023D0EB030063EB020211A608E0D8F838
:1027000000108B0701D50FA602E0490701D50EA6E0
:1027100001251146002408F1240704E000F056F8D2
:1027200030323A55641C50EA0102F7D12B4632464A
:1027300021464046BDE8F041FFF7A6BC000000007E
:102740002D0000002B0000002000000030B400210C
:1027500000F124040CE002F0070505F130054FEA12
:10276000D20242EA4372655401F101014FEAD303F8
:1027700052EA0305EFD10468002310A2250708D50B
:1027800004F020040C4304D0C46901230CA2641E8D
:10279000C46130BCFFF778BC10B504462146106810
:1027A000FFF769FC02462046BDE810400023CDE754
:1027B000D21D22F00701D1E90023C7E70000000085
:1027C00030000000004870471012002030B5B0F112
:1027D0000A024FEA900E71F100034EEA817EB0EBDF
:1027E0000E0061EB91014FEA101E4EEA017E10EBE4
:1027F0000E0041EB11114FEA102E4EEA016E10EB64
:102800000E0041EB11214FEA104E4EEA014E10EB43
:102810000E0041EB1141401841F100014FEAD00098
:1028200040EA41704FEAD10110EB80054FEA810484
:1028300044EA907444EB01046D1944EB0404521B08
:10284000A3414FF0000348BF0A3200D530BD401C01
:1028500041F1000130BD00002DE9F0411F46044662
:1028600003260168072A01F4006004DB08B116A5FD
:1028700005E016A503E008B115A500E015A521F0B7
:1028800010002060A069C01EA0610FB1401EA061B1
:102890002046FFF7BBF94FB1D4E9012138469047F4
:1028A000206A401C2062C01C206206E0206AFAE711
:1028B000D4E9012115F8010B9047761EF8D2204685
:1028C000FFF7BBF9BDE8F0814E414E006E616E002E
:1028D000494E4600696E660010B5436913B1AFF307
:1028E000008001E0FFF798FE012010BD128800F182
:1028F000240182840022C2840122EDE711684FF096
:10290000FF32E9E72DE9F047814616468AB035489F
:102910007844D0E9002380680092CDE90130314845
:1029200078440C38D0E90223006903924FF0370253
:10293000CDE9043041F69B30014491FBF2F0A0F167
:10294000800502FB10141B3C02D56442012000E00C
:102950000020DFF890A080460027FA44AAF1C60ABA
:102960000DE0E00709D03246684607EB47010AEB65
:10297000810100F04DFB8DE8070064107F1C002CE6
:10298000EFD1184F7F44B43F17E0E80713D007EBAF
:1029900004100DF1180A90E80E00AAE80E00C068B5
:1029A000F04201D198190890324606A903A800F018
:1029B0002FFB03AB07C36D10641C002DE5D132461D
:1029C0006946B8F1000F03A802D000F00DFB01E04A
:1029D00000F01EFBC9E90001C9F808200AB0BDE8F3
:1029E000F0870000BC0A0000007B00F08000704708
:1029F00070B516460C460546FFF728FB036893F8AA
:102A00000101012806D0FF2C0FD8185D68B1012004
:102A10002C7070BDD3F80701324621460344284686
:102A2000BDE8704003F2071318474FF0FF3070BD48
:102A30004FF0013C50F8042B51F8043B9A4221D14D
:102A4000A2EB0C03934313EACC1317D150F8042BD9
:102A500051F8043B9A4215D1A2EB0C03934313EABD
:102A6000CC130BD150F8042B51F8043B9A4209D1F6
:102A7000A2EB0C03934313EACC13DBD04FF000001E
:102A8000704700BFD01A01BAB1FA81F101F0180104
:102A900022FA01F0CB40C1F12001DBB2C0B2C01A72
:102AA0002CFA01F3D11A914311EAC311E6D1704710
:102AB0007546FFF787FEAE4605006946534620F08F
:102AC0000700854618B020B5FEF75CF9BDE8204048
:102AD0004FF000064FF000074FF000084FF0000BDA
:102AE00021F00701AC46ACE8C009ACE8C009ACE88D
:102AF000C009ACE8C0098D4670470446AFF30080BA
:102B00002046FDF7B2FB5FEA400C08BF91F0000FD2
:102B10004FEA8C234FEAC12243EA51514FEA1C503D
:102B200018BF00F5F0404FEA300018BF41F00041F7
:102B30005FEA6C5C00F02980BCF1FF3F08BF40F009
:102B400080407047130C06BF12044FF0100C4FF07A
:102B5000000C130E04BF12020CF1080C130F04BF7B
:102B600012010CF1040C930F04BF92000CF1020C43
:102B7000D30F04BF52000CF1010C11464FF00002BC
:102B8000A0F11F00A0EB0C00704711F0004F08BF30
:102B9000704731F000413FF4D5AF0B0C06BF09047C
:102BA0004FF0100C4FF0000C0B0E04BF09020CF19B
:102BB000080C0B0F04BF09010CF1040C8B0F04BFB0
:102BC00089000CF1020CCB0F04BF49000CF1010C81
:102BD000CCF12003A0EB0C0022FA03F302FA0CF272
:102BE00041EA030100F10100704720F07F4C80EAC8
:102BF000030023F07F47ACEB070303F57C5300F0A1
:102C0000004003F1FF032DE980494FEA154B09B459
:102C10004FEA144325EA0B4E24EA03480FF2042638
:102C200006EB132749083E785FEA320203FB06678A
:102C3000C7F5000707FB06F64FEA54374FEAD646BA
:102C400006F1020607FB066CCCF1005C4FEA1C475C
:102C50002CEA074C07FB06F40CFB06F504EB1546C3
:102C60004FEA961634BF00204FF000404FEAD137AC
:102C700006FB07FC4FEA1C4C0CFB0BF7D21B03FBBB
:102C80000CF761EB07010CFB0EF7B0EB074072EBA2
:102C900017420CFB08F734BFA2EB0742B2EB074226
:102CA00061EB17414FEA0C444FEA910706FB07FC22
:102CB0004FEA1C4C0CFB0BF7B0EBC74072EB5732E2
:102CC00003FB0CF734BFA2EBC742B2EBC74261EB88
:102CD00057310CFB0EF7B0EBC70072EB57720CFBD1
:102CE00008F734BFA2EBC702B2EBC70261EB577122
:102CF000039F4FEA816141EA921104EBCC044FEA51
:102D0000D1374FEA826206FB07FC42EA90124FEA93
:102D100080604FEA1C4C0CFB0BF7D21B03FB0CF73B
:102D200061EB07010CFB0EF7B0EB074072EB1742AB
:102D30000CFB08F734BFA2EB0742B2EB074261EB92
:102D400017414FEA8C554FEA910704EB9C2406FB90
:102D500007FC4FEA1C4C0CFB0BF7B0EBC74072EBC7
:102D6000573203FB0CF734BFA2EBC742B2EBC742AA
:102D700061EB57310CFB0EF7B0EBC70072EB5772EB
:102D80000CFB08F734BFA2EBC702B2EBC70261EB42
:102D9000577115EB4C254FEA816141EA92114FEAD8
:102DA00082624FEAD13742EA901206FB07FC44F1F7
:102DB00000044FEA80604FEA1C4C0CFB0BF7D21B5F
:102DC00003FB0CF761EB07010CFB0EF7B0EB0740C0
:102DD00072EB17420CFB08F734BFA2EB0742B2EBD1
:102DE000074261EB174115EB1C154FEA813141EAAF
:102DF00092414FEA823242EA90424FEA80304FEAF3
:102E00000C7644F1000448EA03434EEA0B484FF0C5
:102E1000000EB2EB080C71EB030724BF6246394683
:102E20004EEB0E0E4FF0000B0018524149414BEB98
:102E30000B0BB2EB080C71EB03077BF1000B24BF0B
:102E4000624639464EEB0E0E4FF0000B0018524111
:102E500049414BEB0B0BB2EB080C71EB03077BF119
:102E6000000B24BF624639464EEB0E0E51EA0207B4
:102E700018BF46F0010616EB0E7655F1000254F12C
:102E8000000103D5BDE88901BDE80088BDE88901DE
:102E9000BDE80048B619524141EB0101A3F101031D
:102EA000704780807F7E7D7C7B7A797877767675B7
:102EB0007473727171706F6E6E6D6C6C6B6A6A692F
:102EC0006868676666656464636362616160605FC9
:102ED0005F5E5E5D5D5C5C5B5B5A5A595958585742
:102EE00057565655555554545353525252515150AA
:102EF00050504F4F4F4E4E4D4D4D4C4C4C4B4B4BFD
:102F00004A4A4A4949494848484747474746464642
:102F1000454545444444444343434342424242417D
:102F20004141002B26D4770021D01CB54FEA37074A
:102F300003B44FF010004FF010014FF000000FBC31
:102F4000BDE810400BF1010BBBF1010F08BF5FEAB8
:102F5000170722BF12F1010211F101014FF00041E8
:102F600043F1000300F0004043EA00007047F9D34A
:102F70005708DAE746EA064613F1400F4FEA1646CD
:102F80001FDD13F1200FDFBF16430A460021203357
:102F90005B42C8D0C3F1200746EA064602FA07F7AB
:102FA0004FEA164646EA0706C3F1200722FA03F263
:102FB00001FA07F721FA03F14FF0000342EA070292
:102FC000B1E746EA020646EA06464FEA164646EAF0
:102FD0000106BCBF46EA0646360C4FF000034FF030
:102FE00000024FF000019EE72DE9C048934630B43F
:102FF00091E8380007C831EA400C48BF34EA430C76
:1030000003D5FFF7F2FDFFF78CFFF0BCBDE80088A9
:103010002DE9C048934630B491E8380007C810F055
:10302000804F08BF13F0804F03D100F005F8FFF781
:1030300078FFF0BCBDE8008820F07F4780EA0300FD
:1030400023F07F4C07EB0C03A3F57C5300F000400A
:10305000A3F1FE0392F0000F00F0B38095F0000F93
:1030600000F077802DE901494FEA11404FEA1446FC
:1030700021EA004800FB06FC24EA064708FB06F6A6
:1030800007FB08F800FB07F718EB06484CEB164C5B
:103090004FEA124B18EB07484FEA15464CEB174026
:1030A00022EA0B4E0BFB06FC25EA06470EFB06F652
:1030B00007FB0EFE0BFB07F71EEB064E4CEB164C08
:1030C0004FF000061EEB074E4CEB174B18EB0B08AE
:1030D00040F1000018EB0E0B58EB000840F1000027
:1030E0008F1A4FF000013CBFC943661B14BFB5EBFC
:1030F000040C00213CBFC943F61B4FEA17444EEABB
:103100008E0E27EA04454FEA1C4704FB07622CEAAF
:10311000074C05FB07F70CFB05F604FB0CFC16EB54
:10312000074642EB174216EB0C4642EB1C421BEBE8
:10313000060658EB0202414146EA9E0601D5BDE86B
:103140000189B619524141EB0101A3F10103BDE828
:1031500001894FEA14454FEA114724EA054621EA5E
:10316000074C05FB07F406FB07F70CFB06F105FB14
:103170000CFC11EB074144EB17444FEA124711EBEB
:103180000C4144EB1C4422EA074C05FB07F206FB0A
:1031900007F70CFB06F605FB0CFC16EB074642EBAB
:1031A000174216EB0C4642EB1C456A1854F100011D
:1031B00048BF7047B619524141EB0101A3F1010329
:1031C000704795F0000F37D04FEA11424FEA14478D
:1031D00021EA024624EA074C02FB07F106FB07F747
:1031E0000CFB06F402FB0CFC14EB074441EB17410B
:1031F0004FEA154714EB0C4441EB1C4125EA074C00
:1032000002FB07F506FB07F70CFB06F602FB0CFCBE
:1032100016EB074645EB174516EB0C4645EB1C42F3
:10322000121951F1000148BF7047B619524141EBE4
:103230000101A3F1010370474FEA14454FEA11471A
:1032400024EA054621EA074C05FB07F106FB07F7D0
:103250000CFB06F24FF0000605FB0CFC12EB0742DC
:1032600041EB174112EB0C4251EB1C4148BF704738
:10327000921841EB0101A3F101037047490050EAA4
:10328000C12018BF04204A0D18BF40F0010040F2D1
:10329000FF72B2EB515F08BF40F00200012808BF87
:1032A0000520704730380A2801D2012070470020DD
:1032B0007047000010B500290AD00878002807D010
:1032C00005487844FFF7B4FB002801D0002010BD6A
:1032D0000248784410BD0000460100003E01000095
:1032E00010B500290AD00878002807D0054878448E
:1032F000FFF79EFB002801D0002010BD0248784453
:1033000010BD00002A02000022020000FFF703B8EF
:10331000303132333435363738394142434445460B
:103320004030580030313233343536373839616205
:103330006364656640307800040000080000000007
:10334000000000020001000010000000000000006A
:103350000000000002400000000000A0000000008B
:1033600005400000000000C8000000000C40000004
:103370000000409C00000000194000000020BCBE7E
:103380000000000034400000BFC91B8E0000000494
:10339000B5400000504BCFD06607E2CF01000000DF
:1033A0006C4100003E8251AADFEEA734010000000C
:1033B000D9420000DCB5A0E23A301F97FFFFFFFFC3
:1033C000B4450000FD25A0C8E9A3C14FFFFFFFFFE2
:1033D000FF3F00000000008000000000FF3F0000F1
:1033E00000000080000000003435000800000020CC
:1033F000480000006C0100087C35000848000020EF
:103400002818000088010008100100004300000097
:10341000F8FFFFFF004040404040404040404141F5
:103420004141414040404040404040404040404099
:103430004040404040050202020202020202020233
:103440000202020202202020202020202020200230
:1034500002020202020290909090909010101010C0
:10346000101010101010101010101010101010105C
:1034700002020202020288888888888808080808F0
:1034800008080808080808080808080808080808BC
:1034900002020202400000000000000000000000E4
:1034A000000000000000000000000000000000001C
:1034B000000000000000000000000000000000000C
:1034C00000000000000000000000000000000000FC
:1034D00000000000000000000000000000000000EC
:1034E00000000000000000000000000000000000DC
:1034F00000000000000000000000000000000000CC
:1035000000000000000000000000000000000000BB
:1035100000000000000000001C000000430000004C
:10352000F8FFFFFF0C0000000E0000000F0000007D
:103530002E00000000A24A0400000000000000006D
:103540000102030406070809010000000000000052
:103550000000000000000000000000000102030461
:10356000010203040607080902040608000000001F
:0C3570000000000000000000000000004F
:0400000508000131BD
:00000001FF
