:020000040800F2
:10000000E8150020CD0F0008E5020008E70200080F
:10001000EB020008EF020008F302000800000000F5
:10002000000000000000000000000000F7020008CF
:10003000F902000800000000FB020008FD020008B1
:10004000E70F0008E70F0008E70F0008E70F0008B8
:10005000E70F0008E70F0008E70F0008E70F0008A8
:10006000E70F0008E70F0008E70F0008E70F000898
:10007000E70F0008E70F0008E70F0008E70F000888
:10008000E70F0008E70F0008E70F0008E70F000878
:10009000E70F0008E70F0008E70F0008E70F000868
:1000A000E70F0008E70F0008E70F0008E70F000858
:1000B000E70F0008E70F000837080008E70F0008FF
:1000C000E70F0008E70F0008E70F0008E70F000838
:1000D000E70F0008410F00084B060008C908000898
:1000E000E70F0008E70F0008E70F0008E70F000818
:1000F000E70F0008E70F0008E70F0008E70F000808
:10010000E70F0008E70F0008E70F0008E70F0008F7
:10011000E70F0008E70F0008E70F0008650A00086E
:10012000E70F0008E70F0008E70F0008E70F0008D7
:1001300000F002F800F099F80AA090E8000C824460
:100140008344AAF10107DA4501D100F08EF8AFF23D
:10015000090EBAE80F0013F0010F18BFFB1A43F0A5
:10016000010318473894000058940000103A24BF47
:1001700078C878C1FAD8520724BF30C830C144BF0C
:1001800004680C607047000000230024002500264E
:10019000103A28BF78C1FBD8520728BF30C148BFEA
:1001A0000B6070476E2906F0DB80702905F03683FE
:1001B000662909F03A80652909F03780672909F036
:1001C0003480612909F0338003681B0A28BF41F09D
:1001D0008001692905F0A482642905F0A1827529AE
:1001E00005F09E826F2906F0E783782905F00283E7
:1001F000E92906F07F83E42906F07C83F52906F0DF
:100200007983EF2906F0E483F82905F00183036878
:10021000DB0928BF41F08001632906F0EE827329D3
:1002200006F0F382E32906F0CD84F32906F0D284A8
:10023000002070471FB59DE8030005F0CBFF05F0D7
:10024000ADFF04000020002108F070F9401C606040
:100250000020002108F080F9E0600020002108F073
:100260004FF920611FBD10B510BD06F096FD114677
:10027000FFF7E0FF00F00EF806F034FF03B4FFF7DD
:10028000F2FF03BC00F0FAFD30BF72B662B680F335
:1002900008887047002400BF00F02AFC4FF4E131C9
:1002A000242000F046FA4FF4E131242000F041FB15
:1002B0004FF4165000F0F5FD00F010F900F034F99D
:1002C0000AE005F011F962B20449054804F065FF3F
:1002D0004FF4FA6000F048FCF3E700000000002053
:1002E0001D000020704700BFFEE700BFFEE700BF13
:1002F000FEE700BFFEE77047704770477047000099
:100300000CB50020019000906B48006840F48030EC
:100310006949086000BF6848006800F40030009038
:100320000198401C0190009818B90198B0F5A06F91
:10033000F1D16148006810F4003F02D00120009024
:1003400001E0002000900098012842D15B4800683D
:1003500040F01000594908600846006820F003008A
:1003600008600846006840F0020008605248406893
:10037000514948600846406848600846406840F473
:10038000806048600846406820F47C104860084659
:10039000406840F4E81048600846006840F080700B
:1003A000086000BF4448006810F0007FFAD042485F
:1003B000406820F00300404948600846406840F02B
:1003C0000200486000BF3C48406800F00C0008286C
:1003D000F9D10CBD10B5FFF793FF10BD10B536482D
:1003E000006840F00100344908600846406834491C
:1003F00008403149486008460068324908402E49A3
:1004000008600846006820F48020086008464068BC
:1004100020F4FE0048604FF41F008860FFF7DAFF09
:100420004FF000602849086010BD10B50021002081
:100430000022214B5B6803F00C0121B1042906D096
:10044000082928D107E0214B214C236027E01F4BCE
:100450001F4C236023E0184B5B6803F47010164BAD
:100460005B6803F48032022303EB904022B9194BFE
:100470004343174C23600DE00F4B5B6813F4003FC0
:1004800004D0144B4343124C236003E00F4B43430F
:100490000F4C236003E00D4B0D4C236000BF00BFE9
:1004A000054B5B68C3F303130B4CE15C084B1B6803
:1004B000CB40074C236010BD0010024000200240DA
:1004C0000000FFF8FFFFF6FE08ED00E000127A00E2
:1004D0002800002000093D002C00002008B5012163
:1004E000482001F017F92020ADF8000010208DF809
:1004F000030003208DF802006946094800F054FE0D
:100500002021074800F0FBFE2020ADF800006946DE
:10051000044800F049FE2021024800F0F0FE08BD2A
:10052000000C01400018014008B50121442001F0F1
:10053000F1F81C20ADF8000048208DF80300694652
:10054000354800F031FE0120ADF8000028208DF87C
:1005500003006946314800F027FE08BD10B5044687
:1005600014B101202E4908702D480078002837D09A
:100570001021294800F0A9FE78B10821264800F092
:10058000A4FE50B10421244800F09FFE28B10121AF
:10059000224800F09AFE012822D10A2000F0E4FA55
:1005A00000201F49087010211B4800F08EFE08B97A
:1005B000012010BD0821184800F087FE08B902206C
:1005C000F7E70421144800F080FE08B90320F0E7A3
:1005D0000121124800F079FE01281BD10420E8E730
:1005E00010210D4800F071FE012813D108210A489E
:1005F00000F06BFE01280DD10421074800F065FED4
:10060000012807D10121054800F05FFE10B9012043
:10061000034908700020CCE70018014000080140A1
:100620003C00002050B19E49098841F001019C4ADC
:10063000118000219A4A2432118005E098490988E6
:1006400021F00101964A1180704700B59548008855
:1006500010F0200F21D09348001D0088C3B29248AB
:100660000088B0F5806F12DA00208D4924310880AF
:100670008D48008810B90120FFF7D4FF8A4801880F
:100680000088401C884A10808848435405E086480A
:10069000008840F400408449088000BD70B50546DC
:1006A0000C468348C06940F004008149C8617C4819
:1006B0002C300580001F048079480C30008840F001
:1006C000010077490C3108807548008840F001002E
:1006D0007349088002231E220321012000F088FABA
:1006E00070BD70B504460E4615467148406940F02D
:1006F00001006F494861052000F013FAA660E5602B
:1007000000202060206840F01000206020682060F9
:1007100020682060206840F0800020602068206011
:1007200020682060206840F48050206020682060AD
:1007300070BD70B505460C465D48806940F0040008
:100740005B4988615B48006820F47F405949086034
:100750000846006840F40B4008605548C06940F402
:1007600000305349C8610846006940F40030086110
:100770000846006920F4003008614F486843B0FB28
:10078000F4F0484908310880081D008842F20C0145
:10079000084344490C3108808020424914310880C4
:1007A000464A4049091D4648FFF79BFF3D480C302B
:1007B000008840F480703B490C310880084600886E
:1007C00040F020000880022326220321184600F072
:1007D0000FFA41F61F4140F2E730FFF75FFF0020BC
:1007E000314908800120FFF71DFF70BD026822F02B
:1007F000010202604160026842F00102026070473B
:100800000FB438B505A800902C48009A049904F05C
:1008100001FF0020009000BF2A4800680028FBD19B
:10082000264805F00DF984B221462548FFF7DEFF82
:1008300038BC5DF814FB00B519481030008810F082
:10084000010F10D01848008840F400401649088075
:1008500013481030008820F0010011491031088041
:100860000020FFF7DFFE00BD2DE9F04107460C46F2
:10087000154640210B4801F06CF900260CE014F8F5
:10088000011B384601F0EAF800BF4021384601F06C
:1008900053F90028F9D0761CAE42F0D3BDE8F081C0
:1008A00000080040004400403E000020800400207A
:1008B000001002400008014040420F00800000206C
:1008C00080000240840002405D49098811F0200F39
:1008D0002ED05B49091D0988C8B25A49098811F40C
:1008E000004F25D157490988B1F5487F1ADA002110
:1008F000554A11805349098839B95349243909881F
:1009000041F00101504A243A11804E4A11884A1C94
:100910004C4B1A804D4A50544D490968491C4C4A69
:10092000116005E04749098841F40041454A1180BA
:10093000704770B505460C464648806940F008008F
:10094000444988614448006820F47F404249086077
:100950000846006840F40B4008603E48C06940F417
:1009600080203C49C8610846006940F48020086145
:100970000846006920F48020086138486843B0FBCD
:10098000F4F02F4908310880081D008842F20C015C
:1009900008432B490C3108800846008840F02000AD
:1009A0000880022327220121002000F021F941F6CE
:1009B0001F41632000F070F823482438008820F09D
:1009C000010021492439088000201E49088070BD9B
:1009D0000FB438B505A800902148009A049904F096
:1009E00019FE002000901E4805F02AF885B2002468
:1009F0000CE000BF1248008810F0400FFAD01848F1
:100A0000005D0F49091D0880601C84B2AC42F0DB18
:100A100038BC5DF814FB0E480068704770B5054699
:100A20000C4625B122460949284605F073F84FF4D3
:100A30004871064805F027F900200549086070BD97
:100A4000004800404400002024140040800800209A
:100A50004000002000100240040C014040420F0002
:100A6000A00B00201F48008810F0010F13D01E4873
:100A7000008840F400401C4908801A48008820F093
:100A800001001849088017481038008820F001003C
:100A9000144910390880704770B505460C46134854
:100AA000C06940F020001149C8610E481C30058023
:100AB000001F04800B48001F008840F00100094916
:100AC000091F088007481038008840F001000549D8
:100AD00010390880022337220121002000F088F815
:100AE00070BD0000101400404400002000100240BF
:100AF00010B56FF0040000F0D9FA2D4800682D49B8
:100B0000B0FBF1F02C4908700846007800EB40017A
:100B1000C1EBC0104FF6FF7101EAC0002749088001
:100B200010BD0146244A12784A434FF0E0235A612F
:100B300000229A611A46126942F001021A6100BF4E
:100B40004FF0E022106910F0010F02D010F4803F46
:100B5000F6D04FF0E022126922F001024FF0E023BC
:100B60001A6100229A6170470146144A12884A436A
:100B70004FF0E0235A6100229A611A46126942F04E
:100B800001021A6100BF4FF0E022106910F0010F5E
:100B900002D010F4803FF6D04FF0E022126922F02C
:100BA00001024FF0E0231A6100229A6170470000B1
:100BB0002800002000127A00460000204800002093
:100BC000A14A0A400243A14B1A607047014607231D
:100BD00023EA010212029D4B1B1D18684FF6FF030A
:100BE00018409B4B18431043984B1B1D18607047CF
:100BF0002DE9F0410746884614461D462846FFF772
:100C0000E5FFC5F1040007FA00F60F20284100EACD
:100C10000800064306F00F06202C0CDA8D48016808
:100C20004FF0010000FA04F041EA00014FF0E0202B
:100C3000C0F800110DE088480068A4F120014FF0D1
:100C4000010202FA01F240EA02004FF0E021C1F88D
:100C500004018248005D40EA061080490855BDE85D
:100C6000F08170B504460B46CE1701EB9676B010B6
:100C7000CE1701EB9676B610A1EB8606B606350EBA
:100C8000774B9B6943F00103754EB3614FEAB6336E
:100C900053F820300F26AE40B343724E46F8203052
:100CA000334653F8203004FA05F633436D4E46F8C8
:100CB00020306D4B1E6801238B401E436A4B1E6023
:100CC00012F0010F08D0684B0C331B6801268E40D0
:100CD0003343654E0C36336012F0020F08D0624B7E
:100CE00008331B6801268E4033435F4E083633605D
:100CF00070BD00B500205A490861C86014204861E1
:100D000000208861C8610846006840F00100086062
:100D100008464068554908405149486008460068FF
:100D2000534908404E4908600846006820F4802076
:100D300008600846406820F4FE0048600020886093
:100D400000214FF00060FFF73BFF00BD10B53F48AA
:100D50000830006840F004003C4908310860404811
:100D6000C06940F080503E49C8614248406840F444
:100D70008070404948600846006840F00400086000
:100D80000846006840F002000860FFF77DFA10BDD9
:100D90002F48001D2D49091D08607047014649066E
:100DA0002F4A926942F001022D4B9A612D4A083A6E
:100DB000526822F0E0622B4B083B5A601A46526898
:100DC0000A435A60704730B504460025FFF791FF8B
:100DD0002348006840F480302149086000BF204863
:100DE0000068400CFBD04FF480601D494860A01E95
:100DF000C4B20846406840EA8440486008464068FB
:100E000040F4803048601C48006840F032001A49C5
:100E100008601348006840F080701149086000BF06
:100E20000F480068400EFBD00D48406840F00200BB
:100E30000B49486005E00A484068C0F3870505F0A3
:100E40000305022DF7D130BD80FFFF1F08ED00E044
:100E50000000FA0500E100E004E100E000E400E049
:100E60000010024008000140000401400000FFF8AB
:100E7000FFFFF6FE0070004000200240014600BF68
:100E8000704770B504460D4600BF40214B4800F046
:100E900053FE0028F9D0E1B2484800F0DFFD2046BB
:100EA00070BD10B586B00446012144F2040000F084
:100EB00031FC424800F096FC4FF40070ADF814008D
:100EC00003208DF8160018208DF8170005A93C485E
:100ED00000F06AF94FF48060ADF8140004208DF83A
:100EE000170005A9364800F05FF901940020ADF81D
:100EF0000800ADF80A00ADF80C00ADF810000C20A9
:100F0000ADF80E0001A92D4800F0AFFC25208DF8AA
:100F1000000003208DF801008DF8020001208DF8FB
:100F20000300684600F077F8012240F2255123487B
:100F300000F033FD0121214800F023FD06B010BD73
:100F400010B540F225511D4800F00CFE10B31B48AF
:100F500000F088FDC4B21B48008810F4004F2BD16C
:100F60001848008810F4804F0CD00A2C03D00020C1
:100F70001449088020E01348008840F400401149DB
:100F8000088019E00D2C06D10E48008840F48040FE
:100F90000C49088010E00B480088C0F30D000A4996
:100FA0000C5408480088401C064908800846008800
:100FB000C72801DD0020088010BD00000038014076
:100FC000000801404C000020C00E00200948804766
:100FD00009480047FEE7FEE7FEE7FEE7FEE7FEE71B
:100FE000FEE7FEE7FEE7FEE704480549054A064B33
:100FF00070470000DD03000831010008E80F002001
:10100000E8150020E8110020E811002031490143D3
:10101000314A1160704770B5002100230F22C47857
:101020000CB32D4C246804F4E064C4F5E064210A98
:10103000C1F10403CA40447804FA03F184781440EF
:1010400021430901254C0678A155047804F01F05B9
:101050000124AC4005786D114FF0E02606EB8505C4
:10106000C5F8004109E0047804F01F050124AC40F4
:101070001B4D0678761145F8264070BD194A0A4086
:101080000243154B1B1F1A60704739B1124A121DDB
:1010900012680243104B1B1D1A6006E00E4A121D17
:1010A000126882430C4B1B1D1A607047042808D13C
:1010B0004FF0E021096941F004014FF0E022116195
:1010C00007E04FF0E021096921F004014FF0E02230
:1010D000116170470000FA050CED00E000E400E04B
:1010E00080E100E080FFFF1F10B50446CA4884423B
:1010F00008D10121042000F027FB0021042000F08A
:1011000023FB46E0C548844208D10121082000F0B5
:101110001BFB0021082000F017FB3AE0C048844286
:1011200008D10121102000F00FFB0021102000F059
:101130000BFB2EE0BB48844208D10121202000F0A7
:1011400003FB0021202000F0FFFA22E0B648844291
:1011500008D10121402000F0F7FA0021402000F0E2
:10116000F3FA16E0B148844208D10121802000F052
:10117000EBFA0021802000F0E7FA0AE0AC48844254
:1011800007D10121801500F0DFFA0021A01500F041
:10119000DBFA10BD10B50121084600F0D5FA002198
:1011A000012000F0D1FA10BD2DE9F04102460025E2
:1011B0000026002000230024002791F803C00CF033
:1011C0000F0591F803C01CF0100F03D091F802C076
:1011D0004CEA050591F800C0BCF1000F31D014684D
:1011E00000202BE04FF0010C0CFA00F3B1F800C026
:1011F0000CEA03069E4220D183004FF00F0C0CFA3C
:1012000003F7BC4305FA03FC4CEA040491F803C05D
:10121000BCF1280F06D14FF0010C0CFA00FCC2F80B
:1012200014C00AE091F803C0BCF1480F05D14FF09B
:10123000010C0CFA00FCC2F810C0401C0828D1D3E5
:101240001460B1F800C0BCF1FF0F34DD5468002019
:101250002EE000F1080C4FF0010808FA0CF3B1F889
:1012600000C00CEA03069E4221D183004FF00F0C10
:101270000CFA03F7BC4305FA03FC4CEA040491F8AA
:1012800003C0BCF1280F05D100F1080C08FA0CF8D6
:10129000C2F8148091F803C0BCF1480F07D100F1E7
:1012A000080C4FF0010808FA0CF8C2F81080401C36
:1012B0000828CED35460BDE8F0814FF6FF7101805D
:1012C000022181700421C17070470246002093689A
:1012D0000B4201D0012000E00020704701468868E1
:1012E00080B2704702460020D3680B4201D0012033
:1012F00000E0002070470146C86880B27047016175
:101300007047416170470AB1016100E04161704777
:10131000C16070474FF480320A438261816182610B
:1013200082698269704702460020424B18684FF676
:101330008073184040EA021008433E4B1860704723
:101340003D49C8617047F0B50A46002300240021DA
:10135000002500F00046B6F1004F02D1354EF1698C
:1013600001E0344E7168C0F3034583B200F44016C7
:10137000B6F5401F08D121F070612E4E766826F038
:1013800070662C4F7E6012E000F48016B6F5801F68
:1013900006D1032606FA05F4A14341F0706106E088
:1013A000460D360103FA06F6B14341F0706122B1F1
:1013B000460D360103FA06F6314300F00046B6F159
:1013C000004F02D11B4EF16101E01A4E7160F0BD79
:1013D00030B500228B071C0F0F2303FA04F2154BC4
:1013E00008338C1053F824309343124C08348D107A
:1013F00044F8253023468C1053F824308C07240FF2
:1014000000FA04F423430B4C08348D1044F82530C3
:1014100030BD0A490860704700080140000C0140D7
:10142000001001400014014000180140001C014060
:10143000002001400000014000002042DC0020426A
:10144000DD48006840F00100DB490860084640685C
:10145000DA490840D849486008460068D849084039
:10146000D54908600846006820F4802008600846D6
:10147000406820F4FE0048604FF41F008860704709
:10148000CD49096821F48031CB4A116011460968C1
:1014900021F480211160B0F5803F03D0B0F5802F9A
:1014A0000ED106E0C449096841F48031C24A116096
:1014B00007E0C149096841F4A021BF4A116000E07A
:1014C00000BF00BF704710B5014600220023002076
:1014D0004A11012A02D1B84C236806E0022A02D13F
:1014E000B54C236A01E0B44C636A01F01F02012489
:1014F00094401C4201D0012000E0002010BD38B50E
:10150000002000900024002500BF3120FFF7DBFF02
:1015100005460098401C00900098B0F5A06F01D0DF
:10152000002DF2D03120FFF7CEFF08B1012400E0FA
:101530000024204638BD014600209F4A106820F054
:10154000F80040EAC100106070479E49086070478B
:1015500002460020984B586820F47C1042EA0103B0
:101560001843954B58607047964908667047014686
:101570000020914A506820F00300084350607047F3
:101580008D48406800F00C007047014600208A4AF0
:10159000506820F0F000084350607047014600207A
:1015A000854A506820F4E060084350607047014667
:1015B0000020814A506820F4605040EAC100506029
:1015C000704729B17C4A527A02437B4B5A7204E03D
:1015D000794A527A8243784B5A7270477A49086046
:1015E000704701460020744A506820F44040084388
:1015F000506070470021754A11706F4A82F82010C0
:10160000012802D0042808D103E001216F4A11709B
:1016100004E005216D4A117000E000BF00BF704773
:101620006B49086070476449096A0143624A116264
:101630007047674944390860704730B5002100227F
:10164000002400235C4D6D6805F00C0121B10429D4
:1016500005D0082923D105E05E4D056022E05D4DEF
:1016600005601FE0544D6D6805F47012524D6D68B1
:1016700005F48034022505EB92421CB9564D5543C2
:1016800005600BE04C4D6D6815F4003F03D0524DE2
:101690005543056002E04F4D5543056002E04D4D56
:1016A000056000BF00BF444D6D6805F0F0010909F9
:1016B0004A4D6B5C0568DD4045603F4D6D6805F443
:1016C000E061090A454D6B5C4568DD4085603A4D37
:1016D0006D6805F46051C90A404D6B5C4568DD409A
:1016E000C560354D6D6805F44041890B3C4D6B5C20
:1016F000C568B5FBF3F5056130BD29B12E4A5269C5
:1017000002432D4B5A6104E02B4A526982432A4B13
:101710005A61704729B1284A92690243264B9A615F
:1017200004E0254A92698243234B9A61704729B1AC
:10173000214AD2690243204BDA6104E01E4AD26991
:1017400082431D4BDA61704729B11B4AD2680243BC
:10175000194BDA6004E0184AD2688243164BDA600B
:10176000704729B1144A12690243134B1A6104E00D
:10177000114A12698243104B1A617047144940396B
:10178000086070470F49C86470470B49C8717047BB
:101790000948406A40F08070074948627047014636
:1017A0000020054A92680A4201D0012000E0002092
:1017B0007047014988727047001002400000FFF82E
:1017C000FFFFF6FE00004242D800424220100240D5
:1017D0008004424200127A0000093D0054000020BB
:1017E0006400002010B50446FB48844209D1012161
:1017F0008803FFF7A9FF00214FF48040FFF7A4FF03
:1018000032E0F648844209D101214804FFF7A9FFDC
:1018100000214FF40030FFF7A4FF25E0F048844298
:1018200009D101218804FFF79CFF00214FF480209B
:10183000FFF797FF18E0EB48844209D10121C80463
:10184000FFF78FFF00214FF40020FFF78AFF0BE026
:10185000E548844208D101210805FFF782FF0021F5
:101860004FF48010FFF77DFF10BD2DE9F04786B0E3
:1018700005460E460024A24600BFA1460027B089B7
:1018800000B100BF2F462C8A4CF6FF700440F08850
:1018900004432C82AC894EF6F3100440B0883189A1
:1018A0000843718908430443AC81AC8A4FF6FF407A
:1018B0000440B0890443AC8201A8FFF7BEFEC648CD
:1018C000874202D1DDF810A001E0DDF80CA0A88964
:1018D00010F4004F08D00AEBCA0000EB0A10316880
:1018E0004900B0FBF1F807E00AEBCA0000EB0A1070
:1018F00031688900B0FBF1F86420B8FBF0F0040116
:101900002009642101FB1089A88910F4004F08D038
:10191000322000EBC900B0FBF1F000F007000443F7
:1019200008E0322000EB09106421B0FBF1F000F078
:101930000F0004432C8106B0BDE8F0874FF4165128
:10194000016000218180C18001810C214181002141
:101950008181704710B502460020108A4FF2FF03C4
:1019600018400B884C8823438C882343CC8823431E
:101970001843108210BD0021018041808180C18008
:10198000704721B1828942F40052828104E0828949
:101990004DF6FF731A4082817047F0B5034600246C
:1019A000002600250020A1F510676A3F00D100BF86
:1019B0001846C1F3421401F01F06012707FA06F585
:1019C000012C01D10C3004E0022C01D1103000E0D8
:1019D00014301AB107682F43076002E00768AF436D
:1019E0000760F0BD1AB1838A0B43838202E0838AC9
:1019F0008B4383827047028A4FF6F0731A4002824B
:101A0000028A0A430282704782894FF2FF731A40AA
:101A1000828182890A438281704721B1828942F0A2
:101A20000202828104E082894FF6FD731A408281AE
:101A30007047028A4FF6DF731A400282028A0A4315
:101A40000282704721B1028A42F48042028204E09D
:101A5000028A4BF6FF731A4002827047C1F30802F4
:101A60008280704701468888C0F3080070478189EA
:101A700041F0010181817047028BD2B20283028B57
:101A800042EA012202837047028B02F47F42028302
:101A9000028B0A430283704721B1828A42F02002FE
:101AA000828204E0828A4FF6DF731A408282704796
:101AB00021B1828A42F01002828204E0828A4FF6CB
:101AC000EF731A408282704721B1828A42F0080285
:101AD000828204E0828A4FF6F7731A40828270474E
:101AE00021B1828942F40042828103E08289C2F3FB
:101AF0000E028281704721B1828A42F400628282A2
:101B000004E0828A4FF2FF731A4082827047828A11
:101B10004FF6FB731A408282828A0A4382827047A0
:101B200021B1828A42F00202828204E0828A4FF668
:101B3000FD731A408282704702460020B1F5007F93
:101B400000D100BF13880B4201D0012000E000202B
:101B5000704701F40072B2F5007F00D100BFCA43A4
:101B60000280704770B50246002400230025002043
:101B7000A1F510666A3E00D100BFC1F3421501F025
:101B80001F03012606FA03F3012D02D19689334083
:101B900006E0022D02D1168A334001E0968A3340D6
:101BA0000C12012606FA04F41688344013B10CB165
:101BB000012000E0002070BD10B500220023A1F537
:101BC00010646A3C00D100BF0A1201249440A3B201
:101BD000DC43048010BD0000003801400044004098
:101BE00000480040004C004000500040FE480068A3
:101BF000704770B504460D462CB9AC4201D00120A7
:101C000070BD0020FCE70DB90120F9E705E0207860
:101C100008B90020F4E7641C6D1C207803F0ECFC8C
:101C20000646287803F0E8FC8642F0D0207803F0DE
:101C3000E3FC0646287803F0DFFC301AE0E770B5D5
:101C40000446204603F0FCFE451C2846E749096887
:101C5000884706460EB9002070BD2A462146304608
:101C600003F058FF3046F7E730B9E149DF4A116029
:101C7000E049E14A11607047016809B1016800E07C
:101C8000DB49DA4A1160416809B1416800E0D9498D
:101C9000D94A116000BFEEE710B52820D349096882
:101CA000884704461CB12821204604F00EF820463F
:101CB00010BD70B5044622E02568A08910F4807F2D
:101CC00004D1A06810B1A068FFF7F3FFA08910F459
:101CD000807F05D1206918B1C74920690968884704
:101CE000A08910F4007F05D1206A18B1C249206A8A
:101CF000096888472046C049096888472C46002C57
:101D0000DAD170BD2DE9F04F8BB083468A460020B2
:101D1000044605460026B94F0021884689460990A9
:101D2000012008909AF800002D2802D1B44F0AF142
:101D3000010A9AF80000302801D10AF1010A9AF844
:101D40000000312822DB9AF8000039281EDC00BF91
:101D50001AF8011BA1F1300006F093FE0022A94BF6
:101D6000CDE906012046294606F0DEFECDE9040154
:101D7000DDE9062306F006FC04460D469AF800004D
:101D8000302803DB9AF800003928E1DD9AF80000DA
:101D90002E2830D19AF8010030282CDB9AF8010067
:101DA000392828DC0AF1010A00BF1AF8011BA1F149
:101DB000300006F066FE0022924BCDE90601204677
:101DC000294606F0B1FECDE90401DDE9062306F05F
:101DD000D9FB04460D460022884B4046494607F091
:101DE000C9F8804689469AF80000302803DB9AF843
:101DF00000003928D9DD9AF80000652803D09AF848
:101E00000000452823D10AF1010A9AF800002B2886
:101E100002D10AF1010A08E09AF800002D2804D145
:101E20004FF0FF3008900AF1010A08E01AF8010BA0
:101E30003038099901EB810100EB410009909AF8D3
:101E40000000302803DB9AF800003928EEDDDDE9D8
:101E5000082101FB02F006F014FE42464B46CDE994
:101E6000000106F08FFB02460B46CDE9020100207F
:101E7000644905F02DFE22462B46CDE90601304689
:101E8000394606F051FECDE90401DDE9062306F0EE
:101E90004BFE04460D46CBE906452046294606F092
:101EA000C1FDCBF814000320CBF80C0050460BB05A
:101EB000BDE8F08F0146491E41EA610141EAA101F6
:101EC00041EA211141EA212141EA2141481C7047A0
:101ED0002DE9F04104460E460CB1206810B90020EF
:101EE000BDE8F081A06806446068B04203DBA168E9
:101EF00020680844F4E73046FFF7DCFF0746384621
:101F00003A490968884705463DB93B492068096850
:101F10008847002060602060E2E725B12846D4E9C8
:101F2000001203F0F7FD34492068096888476760AC
:101F30002560A0682844D3E770B504460CB120683A
:101F400008B9002070BDA16820684518284603F034
:101F500077FDA1680844F5E72DE9FC4782460E4667
:101F60004FF00009DAE906450022134620462946CB
:101F700006F01CFD13D12EB102213046FFF7A8FF59
:101F8000814604E002201949096888478146B9F171
:101F9000000F03D01CA00088A9F80000A0E0DAF828
:101FA000140006F06EFD074622462B4606F0E2FFBF
:101FB00021F000410022154BCDE9000106F078FD2B
:101FC0003FD8134A134B2046294606F071FD38D8F6
:101FD0000022114B2046294606F0A4FE31D80EB34C
:101FE000152130461AE00000700000206800002033
:101FF0004D550008AB5500086C0000200000F03F74
:102000000000F0BF00002440300000000000B03CA1
:102010000000C0FFFFFFDF410000E0C1FFF758FFF5
:10202000814604E01520FA49096888478146B9F1DC
:10203000000F55D0F7A14846DAF8142003F008FB4A
:102040004EE02EB140213046FFF742FF814604E0CA
:102050004020EF49096888478146B9F1000F3FD019
:102060002046294605F0C6FC074622462B4606F0C8
:1020700081FF21F000410022E74BCDE9000106F08D
:1020800017FD0FD825F000412746E44AE44B3846B7
:1020900006F00EFD06D222462B46E2A1484603F08A
:1020A000D7FA1DE025F000412746E04AE04B3846CC
:1020B00006F0FEFC07D325F000410022DD4B384638
:1020C00006F030FE06D222462B46DBA1484603F03E
:1020D000BFFA05E022462B46D8A1484603F0B8FADD
:1020E0004846BDE8FC87014600220878302806DB18
:1020F0000878392803DC08783038024415E008787D
:10210000412806DB0878462803DC08783738024483
:102110000BE00878612806DB0878662803DC08787D
:102120005738024401E0002070471201491C08782A
:10213000302806DB0878392803DC08783038024478
:1021400015E00878412806DB0878462803DC087883
:10215000373802440BE00878612806DB08786628E7
:1021600003DC08785738024401E00020DCE7120164
:10217000491C0878302806DB0878392803DC087801
:102180003038024415E00878412806DB08784628F4
:1021900003DC0878373802440BE00878612806DB56
:1021A0000878662803DC08785738024401E00020EC
:1021B000BAE71201491C0878302806DB087839286C
:1021C00003DC08783038024415E00878412806DB43
:1021D0000878462803DC0878373802440BE0087892
:1021E000612806DB0878662803DC08785738024443
:1021F00001E0002098E7104696E72DE9F05F83465E
:10220000884608F10104002798F80000222805D02C
:102210008B48C0F800800020BDE8F09F04E014F86F
:10222000011B5C2900D1641C2078222804D020786E
:1022300010B1781C0700F2D1781C754909688847ED
:102240008146B9F1000F01D10020E5E708F1010452
:102250004D469EE020785C2804D014F8010B05F868
:10226000010B96E0641C2078722818D006DC6228E6
:1022700009D066280BD06E287ED10CE0742812D0CD
:102280007528F9D113E0082005F8010B7FE00C2038
:1022900005F8010B7BE00A2005F8010B77E00D2023
:1022A00005F8010B73E0092005F8010B6FE0601CD5
:1022B000FFF719FF0646241DB6F55C4F02D3B6F5AD
:1022C000604F00D306B962E0B6F5584F1CD3B6F59F
:1022D0005C4F19D260785C2802D1A078752800D0B4
:1022E00055E0E01CFFF7FFFE8246A41DBAF55C4FE7
:1022F00002D3BAF5604F00D349E0C6F30901504656
:1023000061F39F2000F580360427802E01D201273B
:1023100008E0B6F5006F01D2022703E0B6F5803F72
:1023200000D203273D44012F20D0022F15D0032FC8
:102330000AD0042F24D106F0BF0040F08001681EAF
:1023400005460170B60900BF06F0BF0040F08001ED
:10235000681E05460170B60900BF06F0BF0040F0D8
:102360008001681E05460170B60900BF3548C05D92
:102370003043C1B2681E00E005E00546017000BFB1
:1023800000BF3D4403E0207805F8010B00BF00BF0B
:10239000641C2078222803D0207800287FF45AAFCC
:1023A000002028702078222800D1641CCBF81090DF
:1023B0000420CBF80C0020462EE72DE9F05F804684
:1023C00089460027BB46454611E02878002802DDF3
:1023D0002878202805DB2878222802D028785C2855
:1023E00001D1012000E0002040EA0B0B6D1C287891
:1023F0000028EAD1BBF1000F3ED1A5EB0807B9F1E7
:10240000000F21D0F91C4846FFF762FD064620E088
:1024100068000020256400000000B03C44F3C2E4E2
:10242000E4E9634C252E3066000000008DEDB5A078
:10243000F7C6B03E65CDCD4125650000256600009C
:102440007000002022930008F81CF74909688847AB
:10245000064616B90020BDE8F09F3446222004F855
:10246000010B4146204603F0C7FA2220E055002127
:10247000781C21543046EEE7B8F1000F16D1B9F1BF
:10248000000F05D003214846FFF722FD064604E071
:102490000320E5490968884706460EB90020DAE7B7
:1024A000E2A1304603F0A8FA3046D4E7454695F855
:1024B00000A00DE05146DEA003F082FA08B17F1CB7
:1024C00003E0BAF1200F00DA7F1D6D1C95F800A023
:1024D000BAF1000F02D0781C0700EBD1B9F1000F60
:1024E00005D0F91C4846FFF7F3FC064604E0F81C4B
:1024F000CD490968884706460EB90020ABE7344647
:102500004546222004F8010B47E028781F280ADD01
:102510002878222807D028785C2804D015F8010BE9
:1025200004F8010B39E05C2004F8010B15F8011BDD
:102530008A460C2919D006DC082912D0092920D096
:102540000A2922D115E00D2917D0222905D05C29AE
:102550001BD15C2004F8010B1EE0222004F8010BC3
:102560001AE0622004F8010B16E0662004F8010B63
:1025700012E06E2004F8010B0EE0722004F8010B4B
:102580000AE0742004F8010B06E05246AAA1204696
:1025900003F05EF8641D00BF00BF28780028B4D1A6
:1025A000222004F8010B002004F8010B304652E70A
:1025B00070B504460D4629462069FFF7FEFE70BD42
:1025C00000E0401C20B1017811B101782029F8DD2C
:1025D00070472DE9F04706460C4620787B2804D04A
:1025E000974804600020BDE8F0870620F060601C7A
:1025F000FFF7E6FF044620787D2801D1601CF2E752
:10260000FFF74AFB0546B060B06808B90020EAE76A
:102610002046FFF7D5FF804641462846FFF7EDFDEF
:102620000746FFF7CDFF04460CB90020DBE7286919
:1026300028620020286120783A2803D0804804606E
:102640000020D0E7601CFFF7BBFF804641462846CC
:1026500000F09BF80746FFF7B3FF04460CB90020D3
:10266000C1E732E0FFF718FB07460FB90020BAE7D1
:102670002F607D603D46601CFFF7A2FF8146494602
:102680002846FFF7BAFD8046FFF79AFF04460CB9CB
:102690000020A8E7286928620020286120783A28CD
:1026A00003D06748046000209DE7601CFFF788FFA7
:1026B00081464946284600F068F88046FFF780FFCB
:1026C00004460CB900208EE700BF20782C28C9D022
:1026D00020787D2801D1601C85E7594804600020DE
:1026E00081E72DE9F04705460C4620785B2804D0A9
:1026F000534804600020BDE8F0870520E860601CB6
:10270000FFF75EFF044620785D2801D1601CF2E7E8
:10271000FFF7C2FA0646A860A86808B90020EAE7F1
:102720002046FFF74DFF80464146304600F02DF829
:102730000746FFF745FF04460CB90020DBE718E029
:10274000FFF7AAFA07460FB90020D4E737607E608A
:102750003E46601CFFF734FF81464946304600F094
:1027600014F88046FFF72CFF04460CB90020C2E79E
:1027700000BF20782C28E3D020785D2801D1601C90
:10278000B9E72F4804600020B5E770B505460C4650
:102790000CB9002070BD04222AA1204603F06FF975
:1027A00018B90220E860201DF4E7052227A1204681
:1027B00003F065F918B90020E860601DEAE704221B
:1027C00024A1204603F05BF920B90120E86068618C
:1027D000201DDFE72078222804D121462846FFF774
:1027E0000CFDD7E720782D2805D02078302807DB8E
:1027F0002078392804DC21462846FFF783FAC9E708
:1028000020785B2804D121462846FFF76AFFC1E7FC
:1028100020787B2804D121462846FFF7DAFEB9E765
:10282000074804600020B5E768000020222200006D
:10283000225C080C0A0D0900752530347800000070
:10284000700000206E756C6C0000000066616C7397
:102850006500000074727565000000002DE9F04706
:1028600080460D4616460024FFF716FA074600205C
:10287000FE4908600FB9BDE8F0874046FFF7A0FEAB
:10288000814649463846FFF780FF044624B938465A
:10289000FFF70FFA0020EEE766B12046FFF790FE43
:1028A0000446207830B13846FFF703FAEF48046059
:1028B0000020E0E705B12C603846DCE710B504469F
:1028C000002211462046FFF7C9FF10BD2DE9FF4F3A
:1028D00089B0884616461F4600200890079006904B
:1028E0004FF0070A00250998D0F8089000200290C0
:1028F0000190009004E00298401C0290D9F80090EA
:10290000B9F1000FF7D10298002835D157B116B1AF
:1029100008F1040000E0032001463846FFF7D8FA2A
:10292000069009E016B108F1040100E00321084611
:10293000CF49096888470690069818B900200DB05D
:10294000BDE8F08F069C7B2004F8010B66B10A20DD
:1029500004F8010B002503E0092004F8010B6D1CAD
:10296000A8F10100A842F7DC7D2004F8010B00204B
:1029700004F8010B0698E2E7002F77D0BD680EB18E
:10298000022000E0012082460AF101013846FFF7EB
:102990009FFA04460CB90020D1E77B2004F8010B14
:1029A00016B10A2004F8010B00202070B8685044CA
:1029B000B8600998D0F8089008F1010868E0B6B14D
:1029C00041463846FFF784FA04460CB90020B6E7C2
:1029D0000020039005E0092004F8010B0398401C37
:1029E000039003984045F6DBB8684044B860394628
:1029F000D9F82000FFF7E1FC3846FFF79DFAB860F0
:102A00000EB1022000E00120824651463846FFF711
:102A10005FFA04460CB9002091E73A2004F8010B54
:102A200016B1092004F8010BB8685044B8603B4661
:102A300032464146484600F078FA3846FFF77CFABD
:102A4000B8600EB1012000E00020D9F8001009B1F3
:102A5000012100E0002100EB010A0AF101013846E2
:102A6000FFF736FA044614B9002068E734E0D9F8D5
:102A7000000010B12C2004F8010B16B10A2004F854
:102A8000010B00202070B8685044B860D9F800905D
:102A9000B9F1000F93D116B108F1010000E0022056
:102AA00001463846FFF714FA04460CB9002046E701
:102AB0004EB1002503E0092004F8010B6D1CA8F1BC
:102AC0000100A842F7DC7D2004F8010B00202070F3
:102AD00038682844069005E102998800644909682D
:102AE00088470890089808B9002028E702998800CC
:102AF0005F49096888470790079828B95D49089891
:102B00000968884700201AE702988100089803F0B6
:102B1000DCF802988100079803F0D7F80998D0F8FC
:102B2000089008F1010806B1C2442EE00021D9F84E
:102B30002000FFF742FC0490079941F8250000238C
:102B400032464146484600F0F0F929466D1C059092
:102B5000089A42F82100049898B1059888B1059820
:102B600002F06EFF8346049802F06AFF0BEB00014F
:102B7000891C16B108F1020000E0002008448244DC
:102B800001E001200190D9F80090B9F1000FCDD1FA
:102B9000019820B95046364909688847069006983A
:102BA00008B901200190019818B3002514E0079896
:102BB00050F8250028B1079951F825002D490968DA
:102BC0008847089850F8250028B1089951F8250041
:102BD0002849096888476D1C02988542E7DB25492A
:102BE000079809688847234908980968884700209A
:102BF000A5E67B21069801700698441C16B10A20B0
:102C000004F8010B0020207000254FE05EB1002089
:102C1000039005E0092004F8010B0398401C039081
:102C200003984045F6DB079951F8250002F008FFAC
:102C30000090079850F825102046009A02F06AFF8D
:102C4000009804443A2004F8010B16B1092004F856
:102C5000010B089850F82510204602F0CDFE089987
:102C600051F8250002F0ECFE044405E0700000205D
:102C7000680000206C0000200298401EA84202D08C
:102C80002C2004F8010B16B10A2004F8010B0020D7
:102C90002070079951F82500FE490968884708996E
:102CA00051F82500FB49096888476D1C0298854248
:102CB000ACDBF849079809688847F649089809681D
:102CC00088474EB1002503E0092004F8010B6D1C74
:102CD000A8F10100A842F7DC7D2004F8010B0020D8
:102CE00004F8010B06982AE62DE9FF4F85B09246BD
:102CF0001E464FF0000B052003900598D0F8088081
:102D0000D946002500200290019003E009F1010955
:102D1000D8F80080B8F1000FF8D1B9F1000F16D142
:102D20002EB103213046FFF7D3F8834604E0032099
:102D3000D949096888478346BBF1000F03D0D7A162
:102D4000584602F059FE584609B0BDE8F08F002EF3
:102D500057D0B56801213046FFF7BAF804460CB9E0
:102D60000020F1E75B202070B068401CB06005983F
:102D7000D0F808802EE0334652460699491C40465A
:102D800000F0D3F83046FFF7D7F8B060D8F800006D
:102D9000F0B1BAF1000F01D0022000E00120039051
:102DA0000399491C3046FFF793F804460CB90020FC
:102DB000CAE72C2004F8010BBAF1000F02D0202042
:102DC00004F8010B00202070B16803980844B0603B
:102DD000D8F80080B8F1000F02D002980028CAD0BD
:102DE00002213046FFF774F804460CB90020ABE727
:102DF0005D2004F8010B00202070306800EB050B0B
:102E000091E04FEA8900A4490968884707460FB94D
:102E1000002099E74FEA8901384602F056FF0598ED
:102E2000D0F8088021E0002352460699491C40460C
:102E300000F07BF8049029466D1C049847F82100A7
:102E4000049870B1049802F0FBFD801CBAF1000FE9
:102E500001D0012100E000210144039808440390BF
:102E600001E001200290D8F80080B8F1000F02D0F4
:102E700002980028D7D0029820B98749039809689A
:102E800088478346BBF1000F01D1012002900298D0
:102E900090B1002508E057F8250020B157F825002B
:102EA0007C49096888476D1C4D45F4DB38467949F3
:102EB00009688847002047E75B208BF800000BF18A
:102EC000010400202070002521E057F8250002F0C1
:102ED000B7FD019057F825102046019A02F01AFE1E
:102EE00001980444A9F10100A8420AD02C2004F85A
:102EF000010BBAF1000F02D0202004F8010B0020D2
:102F0000207057F825006349096888476D1C4D45B6
:102F1000DBDB38465F49096888475D2004F8010B10
:102F2000002004F8010B58460EE72DE9F041044655
:102F30000F4690461D46002614B90020BDE8F081DA
:102F4000002D49D0207B072845D2DFE800F0101C77
:102F500004282E343C0005212846FEF7B9FF06461A
:102F600026B1AFF22071304602F046FD33E0062173
:102F70002846FEF7ADFF064626B1AFF23071304667
:102F800002F03AFD27E005212846FEF7A1FF06469C
:102F900026B1AFF24071304602F02EFD1BE029460B
:102FA0002046FEF7D9FF064615E029462046FFF7E2
:102FB000FFFA06460FE02B46424639462046FFF709
:102FC00093FE064607E02B46424639462046FFF769
:102FD0007DFC064600BF37E0207B072833D2DFE8C0
:102FE00000F00A1004161C222A00AFF2A870FEF7A7
:102FF00026FE064627E0AFF2AC70FEF720FE06463E
:1030000021E0AFF2B070FEF71AFE06461BE0002189
:103010002046FEF7A1FF064615E000212046FFF7F7
:10302000C7FA06460FE00023424639462046FFF71E
:103030005BFE064607E00023424639462046FFF77E
:1030400045FC064600BF00BF304677E710B5044692
:103050000023012219462046FFF767FF10BD10B577
:10306000044600231A4619462046FFF75EFF10BDAE
:10307000FEB505460C4616462046074909688847AE
:1030800000900194002002906B46324600212846B1
:1030900006E000006C000020680000205B5D00007E
:1030A000FFF743FFFEBD01468A68002001E0401C97
:1030B0001268002AFBD170470246906801E0491E61
:1030C000006808B10029FADC704770B505460E4665
:1030D000AC6800E024682CB13146206AFEF789FD17
:1030E0000028F7D1204670BD01604860704770B578
:1030F0000546FEF7D1FD04460CB9002070BD28221C
:103100002946204602F08DFD00202062E06840F450
:103110008070E0600020606020602046EEE770B5BF
:1031200005460E46AC6806B970BD0CB9AE6009E044
:1031300000E0246814B120680028FAD13146204606
:10314000FFF7D2FF00BFEFE770B506460D46144605
:1031500004B970BD206A18B1FE49206A0968884721
:103160002846FEF76CFD206221463046FFF7D7FF68
:1031700000BFEEE770B506460D46144604B970BDB3
:10318000A08910F4007F05D1206A18B1F149206AA6
:10319000096888472562E06840F40070E0602146D5
:1031A0003046FFF7BCFF00BFE9E770B505460C46A7
:1031B0002046FFF79CFF064631462846FFF7AFFF43
:1031C00070BD2DE9F04105460E4614462046FFF736
:1031D0008EFF07463A4631462846FFF7B5FFBDE861
:1031E000F08110B502460B46916801E009685B1E4C
:1031F00009B1002BFADC09B9002010BD486810B1F4
:10320000D1E900042060086810B1D1E90040606095
:103210009068884201D1086890600020086048608A
:103220000846EAE770B504460D4629462046FFF7F2
:10323000D8FF0646FEF73DFD70BD2DE9F04105467D
:103240000F460026AC6801E0761C24682CB1394694
:10325000206AFEF7CEFC0028F6D12CB13146284674
:10326000FFF7BFFFBDE8F0810020FBE770B5044623
:103270000D4629462046FFF7E0FF0646FEF719FDFA
:1032800070BD2DE9F04106460F461446B56801E0D1
:103290002D687F1E0DB1002FFADC2DB92146304676
:1032A000FFF73DFFBDE8F0812560686860606C60F5
:1032B000B068A84201D1B46001E06068046000BF5A
:1032C000F0E72DE9F04106460F461446B56801E0E7
:1032D0002D687F1E0DB1002FFADC0DB9BDE8F0811D
:1032E0002868206068686060206808B120684460D1
:1032F000B068A84201D1B46001E0606804600020B9
:10330000686028602846FEF7D4FC00BFE6E72DE998
:10331000F04105460E4617464FF00008AC6802E043
:1033200008F1010824682CB13146206AFEF761FCDF
:103330000028F5D144B13046FEF781FC38623A46A8
:1033400041462846FFF7BDFFBDE8F08110B5FEF706
:10335000A3FC04460CB10220E060204610BD10B56D
:10336000FEF79AFC04460CB10120E060204610BD37
:1033700010B5FEF791FC04460CB10020E060204639
:1033800010BD70B50546FEF787FC044624B10DB1AB
:10339000012000E00020E060204670BD70B50546C9
:1033A0000E46FEF779FC044644B10320E060C4E910
:1033B00006562846314605F035FB6061204670BD53
:1033C00070B50546FEF768FC04462CB10420E060A9
:1033D0002846FEF734FC2061204670BD10B5FEF78C
:1033E0005BFC04460CB10520E060204610BD10B522
:1033F000FEF752FC04460CB10620E060204610BDEA
:103400002DE9F05F81468A460025AB46FFF7E6FFCF
:103410000646002410E059F8240005F032FB074668
:10342000FFF7BCFF05460CB9B56003E029465846D6
:10343000FFF75AFEAB46641C0EB15445EBDB304639
:10344000BDE8F09F2DE9F05F81468A460025AB4636
:10345000FFF7C4FF0646002410E059F8240005F0E9
:1034600073FE0746FFF79AFF05460CB9B56003E007
:1034700029465846FFF738FEAB46641C0EB154454A
:10348000EBDB3046BDE8F09F2DE9F0470746884664
:103490000025A946FFF7A2FF0646002410E007EB2F
:1034A000C400D0E900211046FFF778FF05460CB9AB
:1034B000B56003E029464846FFF716FEA946641C9E
:1034C0000EB14445EBDB3046BDE8F0872DE9F0470F
:1034D000074688460025A946FFF780FF06460024D8
:1034E0000DE057F82400FFF76BFF05460CB9B560F7
:1034F00003E029464846FFF7F7FDA946641C0EB1D4
:103500004445EEDB3046BDE8F0872DE9F04705463F
:1035100089464FF0000815B90020BDE8F087FEF796
:10352000BBFB04460CB90020F7E7E86820F4807084
:10353000E06068696061D5E90601C4E906012869AF
:1035400070B12869FEF77BFB2061206940B92046F5
:1035500002E000006C000020FEF7ABFB0020DCE77F
:10356000286A50B1286AFEF76AFB2062206A20B9F7
:103570002046FEF79EFB0020CFE7B9F1000F01D1F6
:103580002046CAE7AF6816E001213846FFF7BDFFC5
:10359000064626B92046FEF78CFB0020BDE7B8F1B1
:1035A000000F05D0C8F80060C6F80480B04601E0FE
:1035B000A660B0463F68002FE6D12046ADE7014641
:1035C00055E00278202A01D1401C50E00278092AF7
:1035D00001D1401C4BE002780D2A01D1401C46E08D
:1035E00002780A2A01D1401C41E002782F2A0BD12F
:1035F00042782F2A08D100E0401C0278002A36D0F9
:1036000002780A2A33D0F7E702782F2A0ED14278BF
:103610002A2A0BD100E0401C02782AB102782A2A1B
:10362000F9D142782F2AF6D1801C20E00278222A94
:1036300019D110F8012B01F8012B0AE002785C2A5D
:1036400003D110F8012B01F8012B10F8012B01F820
:10365000012B027812B10278222AEFD110F8012B47
:1036600001F8012B03E010F8012B01F8012B02787F
:10367000002AA6D10A707047704777B58BB0044610
:103680000D460D9808B900200D9069460DA802F06E
:1036900023FD06463346FEA22946204602F088FB5B
:1036A0000EB070BD10B5102001F050FF04464FF46D
:1036B000807001F04BFF206000206060A0604FF43C
:1036C0008070E060204610BD70B504462068056833
:1036D000284601F06AFF206801F067FF00202060A3
:1036E00070BD2DE9F04104460E46E5680027B84656
:1036F00005E06D00781C0746202800DD03E06068C7
:10370000281AB042F5D300BF202F03DD4FF0FF3061
:10371000BDE8F081E068A8420ED2284601F016FF0D
:1037200080464046D4E9001202F0F4F9206801F026
:103730003CFFC4F80080E5600020E9E7024690689D
:10374000401C5368984202D94FF0FF30704793688D
:103750001068C05C08709068401C90600020F5E71D
:1037600070B504460E461546A06828446168884234
:1037700002D94FF0FF3070BD284601F0E7FE3060FF
:10378000A3682268D1182A46306802F0C3F9A068FD
:103790002844A0600020EEE730B502469068801C07
:1037A0005568A84202D94FF0FF3030BD95681068C7
:1037B000435D9068401C906095681068445D906817
:1037C000401C906004EB032008800020EDE730B53A
:1037D0000246002400239068001D5568A84201D9C4
:1037E000581E30BD07E095681068405D40EA03232D
:1037F0009068401C90602046641C0428F3DB0B603A
:103800000020EEE7F8B504460D46002000900026A3
:1038100069462046FFF7C0FF06460EB13046F8BDA8
:10382000BDF80010A06808446168884202D94FF0D2
:10383000FF30F4E7BDF80010481C01F087FE286057
:10384000BDF80010491C286802F01DFAA368226820
:10385000D118BDF80020286802F05EFABDF800100B
:10386000A0680844A0600020D9E72DE9F84180460F
:103870000C460126002700200090206000BF69460A
:103880004046FFF75BFF054615B12846BDE8F881C5
:103890009DF8001001F07F01206801FB0600206008
:1038A000F6017F1C042F02D94FF0FF30EEE79DF8A0
:1038B000000010F0800FE2D10020E7E770B5044669
:1038C0000D46A16809B9012100E000210846FFF773
:1038D000D3FE01212046FFF704FF10B14FF0FF3067
:1038E00070BDD4E9000145546068401C6060002050
:1038F000F6E770B504460E461546A16809B90121E0
:1039000000E000210846FFF7B7FE29462046FFF7F2
:10391000E8FE10B14FF0FF3070BDD4E900128818F6
:103920002A46314602F0F6F86068284460600020BC
:10393000F2E770B505460C46A96809B9012100E017
:1039400000210846FFF798FE210A2846FFF7B6FF38
:1039500020B9E1B22846FFF7B1FF08B1012070BDE0
:103960000020FCE770B505460C46A96809B901219D
:1039700000E000210846FFF77FFE210E2846FFF7F2
:103980009DFF80B9C4F307412846FFF797FF50B960
:10399000C4F307212846FFF791FF20B9E1B228467A
:1039A000FFF78CFF08B1012070BD0020FCE770B567
:1039B00004460D460026A16809B9012100E0002156
:1039C0000846FFF759FE284602F03AF886B231461B
:1039D0002046FFF7AEFF28B9324629462046FFF7BA
:1039E00088FF08B1012070BD0020FCE770B50246D9
:1039F0000C4621460023002596680EB9012600E0FA
:103A000000263046FFF738FE00BF01F07F05C909E8
:103A100009B145F080055668701C506010688555E6
:103A20005B1C09B1052BF0DB052B01D0012600E062
:103A300000263046FFF720FE002070BD2DE9F04142
:103A400004460D46FFF72EFE064610213046FFF7CE
:103A500035FF204601F0F4FF00F10B08284601F085
:103A6000EFFF801C08EB000739463046FFF7BEFF2A
:103A700009A13046FFF79BFF01213046FFF71EFFEB
:103A800040213046FFF71AFF8021304606E0000053
:103A9000254620255400000045445000FFF749FF0B
:103AA00021463046FFF783FF29463046FFF77FFF68
:103AB0003046BDE8F0812DE9F04104460D46002670
:103AC000FFF7F0FD064610213046FFF7F7FE2046CF
:103AD00001F0B6FF00F10D08284601F0B1FF801C8F
:103AE00008EB000739463046FFF780FFAFF2580178
:103AF0003046FFF75CFF01213046FFF7DFFEC021B3
:103B00003046FFF7DBFE80213046FFF712FF002131
:103B10003046FFF7D3FE00213046FFF7CFFE2146A7
:103B20003046FFF744FF29463046FFF740FF304656
:103B3000BDE8F0812DE9F04104460E461546002708
:103B4000FFF7B0FD074630213846FFF7B7FE2046A5
:103B500001F076FF801C00EB050841463846FFF770
:103B600045FF21463846FFF722FF2A4631463846B0
:103B7000FFF7BFFE3846BDE8F0812DE9F047044667
:103B80000D4616464FF00009CA460027B846FFF713
:103B900089FD81462846FFF759FA0746384601F065
:103BA0004FFF804680214846FFF788FEA4B120469B
:103BB00001F046FF001D08F1020100EB010A514629
:103BC0004846FFF713FF80214846FFF777FE21465E
:103BD0004846FFF7ECFE09E008F1040A5146484662
:103BE000FFF704FF00214846FFF768FEF1B24846A0
:103BF000FFF764FE39464846FFF7D9FE384601F024
:103C0000D4FC4846BDE8F0872DE9FF4F9FB00C4635
:103C100015461E462C9F4FF00008C146C246C346BB
:103C200000201D90642104A802F04FF800200390AA
:103C3000FFF7DDFB804647B13846FFF7C1FB024680
:103C4000FEA102904046FFF77FFAFFF7C7FB8146CF
:103C5000FFF7CDFB82462046FFF7B2FB0246F9A1F3
:103C600002905046FFF770FAFFF7B8FB8346FFF764
:103C7000BEFB1D903246642104A8FFF7FEFC04A899
:103C8000FFF79EFB0246F0A102901D98FFF75CFA39
:103C9000284604F0F6FECDE90001FFF77FFB02465F
:103CA000EAA102901D98FFF74FFA58461D99FFF7B9
:103CB00036FA5A46E7A15046FFF746FA51464846BB
:103CC000FFF72DFA4A46E6A14046FFF73DFA0122EA
:103CD00041461F98FFF751FF03904046FDF7E9FF6B
:103CE000039823B0BDE8F08F2DE9FF5F9CB00C4630
:103CF000174698462B9D4FF00006B146B246B34694
:103D000030461B904FF0640102A801F0DEFF002056
:103D10000190FFF76CFB064645B12846FFF750FBC4
:103D20000246C6A100903046FFF70EFAFFF756FB99
:103D30008146FFF75CFB82462046FFF741FB0246C7
:103D4000C0A100905046FFF7FFF9FFF747FB8346FD
:103D5000FFF74DFB1B90642102A82A9AFFF78DFC08
:103D600002A8FFF72DFB0246B7A100901B98FFF7B2
:103D7000EBF938464146FFF711FB0246B3A100902C
:103D80001B98FFF7E1F958461B99FFF7C8F95A4607
:103D9000B0A15046FFF7D8F951464846FFF7BFF9A2
:103DA0004A46AFA13046FFF7CFF9012231461C98B1
:103DB000FFF7E3FE01903046FDF77BFF019820B04E
:103DC000BDE8F09F2DE9FF4F9DB00C4615461E46FD
:103DD0002A9F4FF00008C146C246C34600201C90EF
:103DE000642103A801F071FF00200290FFF7FFFAA1
:103DF000804647B13846FFF7E3FA02468FA10190AB
:103E00004046FFF7A1F9FFF7E9FA8146FFF7EFFA1D
:103E100082462046FFF7D4FA02468AA10190504616
:103E2000FFF792F9FFF7DAFA8346FFF7E0FA1C9002
:103E30003246642103A8FFF720FC03A8FFF7C0FA6D
:103E4000024681A101901C98FFF77EF92846FFF7F2
:103E5000B7FA02467DA101901C98FFF775F9584604
:103E60001C99FFF75CF95A467AA15046FFF76CF9A6
:103E700051464846FFF753F94A4679A14046FFF7B5
:103E800063F9012241461D98FFF777FE02904046F4
:103E9000FDF70FFF029821B0BDE8F08F2DE9F05F2C
:103EA0000646894614460025AA46FFF7A0FA0546AD
:103EB000204604F0E6FD0746FFF770FA83465A46AF
:103EC00049462846FFF740F9032229463046FFF7C6
:103ED00054FE82462846FDF7ECFE5046BDE8F09FB2
:103EE0002DE9F84F0746884615461E46DDE90AAB20
:103EF0004FF00004A146FFF77AFA044628463146FF
:103F0000FFF74CFA0246414600902046FFF71CF9A5
:103F1000032221463846FFF730FE81462046FDF752
:103F2000C8FE4846BDE8F88F2DE9F05F06460F460B
:103F300014469B46DDF828900025A846FFF757FA5F
:103F400005462046FFF73CFA824652463946284647
:103F5000FFF7FAF8032229463046FFF70EFE8046A7
:103F60002846FDF7A6FE4046BDE8F09F2DE9FF4F2D
:103F70009BB0824614461D460026B146642102A825
:103F800001F0A3FE00200190FFF731FA06462A4611
:103F9000642102A8FFF771FBFFF729FA814620464A
:103FA00004F06FFD0746FFF7F9F983465A4602A968
:103FB0004846FFF7C9F84A4630461C99FFF7C4F84F
:103FC000042231465046FFF7D8FD01903046FDF7F8
:103FD00070FE01981FB0BDE8F08F2DE9F04F9BB047
:103FE0008046894616461F46DDF890A04FF0000433
:103FF00025464FF0640102A801F067FEA346FFF7D3
:10400000F6F904465246642102A8FFF736FBFFF793
:10401000EEF9054630463946FFF7C0F9024602A9D7
:1040200001902846FFF790F82A4649462046FFF7B8
:104030008BF804222146404618E00000746F6B653F
:104040006E000000696400006174000076616C75A8
:104050006500000064617461706F696E74730000C4
:104060006461746173747265616D7300FFF785FD3F
:1040700083462046FDF71DFE58461BB0BDE8F08F75
:104080002DE9F04F9BB08046894614461D46DDF869
:1040900090B000260027642102A801F016FEB24667
:1040A000FFF7A5F906462A46642102A8FFF7E5FABC
:1040B000FFF79DF907462046FFF782F9024602A95D
:1040C00001903846FFF740F83A4649463046FFF738
:1040D0003BF8042231464046FFF74FFD824630460A
:1040E000FDF7E7FD50461BB0BDE8F08F2DE9F84F16
:1040F00005460E4617469846DDE90A944FF0000A39
:10410000012D04D0032D0BD0042D1BD111E04B4603
:104110004246394630460094FFF776FD824612E06B
:104120004B464246394630460094FFF7B7FE82467A
:1041300009E04B464246394630460094FFF716FFE9
:10414000824600E000BF00BF5046BDE8F88F2DE971
:10415000FC5F804689469246DDE90C67DDE90E4545
:104160004FF0000BB8F1010F06D0B8F1030F0DD0DE
:10417000B8F1040F1ED113E032463B465146484683
:10418000CDE90045FFF7B0FD834614E032463B46DB
:1041900051464846CDE90045FFF7A2FE83460AE0B6
:1041A00032463B4651464846CDE90045FFF715FFEC
:1041B000834600E000BF00BF5846BDE8FC9F2DE9E4
:1041C000F84F05460E4617469846DDE90A944FF02B
:1041D000000A012D04D0032D0BD0042D1BD111E0BA
:1041E0004B464246394630460094FFF7EBFD824687
:1041F00012E04B464246394630460094FFF794FEA3
:10420000824609E04B464246394630460094FFF765
:1042100037FF824600E000BF00BF5046BDE8F88F80
:1042200038B504460D4669462046FFF7EBFA08B15B
:10423000FE4838BD0098FEF741FB2860009801F069
:10424000B4F9286810B96FF48060F2E7D4E901216D
:10425000914201D1012100E000210846FFF70CFA4C
:104260000020E6E72DE9FC5F82460C46154600205B
:1042700001900026002780468146009001A9504603
:10428000FFF7CEFF10B1E948BDE8FC9FAFF2302147
:104290000198FEF71AFF064626B13046FEF703FFE7
:1042A000012801D0E148EFE700213046FEF704FF86
:1042B00007460FB9DD48E7E7AFF278213846FEF749
:1042C00004FFD0F81080404601F0BAFB00F1010B6A
:1042D000584601F03BF92060404601F0B1FB00F187
:1042E000010B5A464146206801F014FCAFF29C21B4
:1042F0003846FEF7EAFE8146B9F1000F04D0484681
:10430000FEF7D1FE012801D0C848BDE7002148468C
:10431000FEF7D2FE0090AFF2CC210098FEF7D5FE5A
:10432000406928600198FDF7C4FC0020ACE72DE946
:10433000FC5F82460C4615460020019000260027AF
:1043400080468146009001A95046FFF769FF10B1F1
:10435000B648BDE8FC9FAFF2F8210198FEF7B5FE24
:10436000064626B13046FEF79EFE012801D0AF4832
:10437000EFE700213046FEF79FFE07460FB9AB4836
:10438000E7E7AFF240313846FEF79FFED0F81080E5
:10439000404601F055FB00F1010B584601F0D6F8FC
:1043A0002060404601F04CFB00F1010B5A464146AB
:1043B000206801F0AFFBAFF264313846FEF785FEAE
:1043C0008146B9F1000F04D04846FEF76CFE012883
:1043D00001D09648BDE700214846FEF76DFE0090EB
:1043E000AFF298310098FEF770FEC1698069C5E9A7
:1043F00000010198FDF75DFC0020AAE72DE9FF4FC1
:1044000083B00C4615461E460020029000278046C9
:1044100081468246019002A90398FFF701FF18B177
:10442000824807B0BDE8F08FAFF2CC310298FEF7BA
:104430004CFE074627B13846FEF735FE012801D06D
:104440007A48EEE700213846FEF736FE8046B8F19E
:10445000000F01D17548E4E7AFF218414046FEF77E
:1044600034FED0F81090484601F0EAFA00F1010B52
:10447000584601F06BF82060484601F0E1FA00F17F
:10448000010B5A464946206801F044FBAFF23C411B
:104490004046FEF71AFE8246BAF1000F04D050469D
:1044A000FEF701FE012801D06048BAE7002150461E
:1044B000FEF702FE0190AFF26C410198FEF705FE97
:1044C0000669304601F0BCFA00F1010B584601F0D4
:1044D0003DF82860304601F0B3FA00F1010B5A466E
:1044E0003146286801F016FB0298FDF7E2FB002038
:1044F00097E72DE9F84380460C461646994600207A
:1045000000900025002769464046FFF789FE10B15C
:104510004648BDE8F8830098806820B90098FDF708
:10452000C8FB4248F5E700988568286A01F088FAD8
:10453000471C384601F00AF82060296A3A4620688C
:1045400001F0E8FA686930600098FDF7B2FB0020DE
:10455000DFE72DE9F84380460C46164699460020D1
:1045600000900025002769464046FFF759FE10B12C
:104570002E48BDE8F8830098806820B90098FDF7C0
:1045800098FB2A48F5E700988568286A01F058FAF0
:10459000471C384600F0DAFF2060296A3A46206856
:1045A00001F0B8FAD5E90601C6E900010098FDF767
:1045B00080FB0020DDE72DE9F84F81460C461546CB
:1045C0001E46002000900027804669464846FFF7B7
:1045D00027FE10B11548BDE8F88F0098806820B913
:1045E0000098FDF766FB1148F5E700988768386A80
:1045F00001F026FA00F10108404600F0A7FF206014
:10460000396A4246206801F085FA3E69304601F079
:1046100017FA00F1010A504600F098FF2860304672
:1046200001F00EFA00F1010A524601E000FCFFFF22
:104630003146286801F06EFA0098FDF73AFB002039
:10464000C9E72DE9F84380460D46164699460020F5
:1046500000900024002769464046FFF7E1FD10B1B5
:10466000F948BDE8F883009884680CB1206A20B945
:104670000098FDF71EFBF448F3E7206A01F0E0F92B
:10468000471C384600F062FF2860216A3A462868D5
:1046900001F040FAA46824B90098FDF70AFBEA4843
:1046A000DFE7606930600098FDF703FB0020D8E782
:1046B0002DE9F84380460D461646994600200090A5
:1046C0000024002769464046FFF7AAFD10B1DE48E6
:1046D000BDE8F883009884680CB1206A20B900987E
:1046E000FDF7E7FAD848F3E7206A01F0A9F9471C7B
:1046F000384600F02BFF2860216A3A46286801F00E
:1047000009FAA46824B90098FDF7D3FACE48DFE788
:10471000D4E90601C6E900010098FDF7CAFA0020B5
:10472000D6E72DE9F84F81460D4616461F46002074
:1047300000900024804669464846FFF771FD10B19D
:10474000C148BDE8F88F009884680CB1206A20B990
:104750000098FDF7AEFABC48F3E7206A01F070F963
:1047600000F10108404600F0F1FE2860216A42464F
:10477000286801F0CFF9A46824B90098FDF799FAE8
:10478000B148DEE72769384601F05AF900F1010A1D
:10479000504600F0DBFE3060384601F051F900F180
:1047A000010A52463946306801F0B4F90098FDF725
:1047B00080FA0020C5E72DE9F04104460D46164673
:1047C0001F464FF0FF38012C04D0032C0AD0042CD4
:1047D00018D10FE04B463A4631462846FFF742FDD6
:1047E000804610E04B463A4631462846FFF781FEA8
:1047F000804608E04B463A4631462846FFF721FFFF
:10480000804600E000BF00BF4046BDE8F0812DE9D2
:10481000F04104460D4616461F464FF0FF38012C66
:1048200004D0032C0AD0042C18D10FE04B463A4692
:1048300031462846FFF77BFD804610E04B463A465E
:1048400031462846FFF785FE804608E04B463A464B
:1048500031462846FFF72CFF804600E000BF00BF2E
:104860004046BDE8F0812DE9F04104460D4616466C
:104870001F464FF0FF38012C04D0032C0AD0042C23
:1048800018D10FE04B463A4631462846FFF7B6FDB1
:10489000804610E04B463A4631462846FFF78BFEED
:1048A000804608E04B463A4631462846FFF739FF36
:1048B000804600E000BF00BF4046BDE8F0813EB545
:1048C00004460D46002002900190009002A9204667
:1048D000FEF7CBFF10B16FF481603EBD01A9204609
:1048E000FEF72CFF10B16FF48160F6E769462046B1
:1048F000FEF752FF10B16FF48160EEE7BDF80020C3
:1049000029462046FEF72CFF10B16FF48160E4E7E2
:104910000020E2E72DE9F05F05460F4690461C4671
:104920004FF0000AD346D14600263846FEF78EFBEC
:104930008146484601F084F80646B6F5803F07D820
:10494000B4F5401F04D841A13846FEF7BEFB28B994
:10495000484600F02AFE0020BDE8F09FFEF7A2FEC8
:10496000824680215046FEF7A9FFADB1284601F0EE
:1049700067F8001DB11C0144201D01EB000B5946D6
:104980005046FFF733F880215046FEF797FF29463F
:104990005046FFF70CF80BE0301D211D00EB010B1A
:1049A00059465046FFF722F800215046FEF786FF91
:1049B00002215046FEF782FF49465046FEF7F7FFB8
:1049C000484600F0F2FD21465046FEF7CBFF224656
:1049D00041465046FEF78DFF5046BDE72DE9F047B2
:1049E00005460F4690461C464FF00009CA46002671
:1049F000384601F025F80646B6F5803F02D8B4F5F2
:104A0000401F02D90020BDE8F087FEF74BFE81462B
:104A100080214846FEF752FFE5B1284601F010F824
:104A2000001DB11C0144201D01EB000A51464846FF
:104A3000FEF7DCFF80214846FEF740FF2946484646
:104A4000FEF7B5FF12E0000000FCFFFF64735F6932
:104A500064000000301D211D00EB010A514648464C
:104A6000FEF7C4FF00214846FEF728FF0221484612
:104A7000FEF724FF39464846FEF799FF214648468F
:104A8000FEF770FF224641464846FEF732FF484691
:104A9000B9E72DE9F04706460D4617461C464FF08C
:104AA0000008C146FEF7FEFD804628190CB106211C
:104AB00000E0022100EB0109B0214046FEF7FEFEB6
:104AC00049464046FEF792FF29464046FEF731FF31
:104AD0002A4631464046FEF70CFF44B12146404687
:104AE000FEF740FF224639464046FEF702FF4046A9
:104AF000BDE8F08710B50024FEF7D4FD0446C021C0
:104B00002046FEF7DBFE00212046FEF76FFF204621
:104B100010BDF0B502464FF0000C00230125002621
:104B2000012100240027D2F800C05368012B01D8CE
:104B30000020F0BD644600BF042902D94FF0FF30C9
:104B4000F7E7581E884201D20020F2E7491C641C96
:104B5000207800F07F0000FB0566ED01207810F062
:104B6000800FE9D18F199F4201D83846E1E7002034
:104B7000DFE770B5044600260025A16809B90121C8
:104B800000E000210846FEF777FD2046FFF7C1FF51
:104B90000546002D01DC304670BDFEF783FD06465C
:104BA0002A4630462168FEF7A4FE63685A1B236834
:104BB0005919184600F0F3FF6068401B60603046EA
:104BC000EAE718B504460020009069462046FEF743
:104BD000B5FD9DF8000018BD1EB504466946204687
:104BE000FEF743FE08B1BF481EBD02A92046FEF7EE
:104BF000A5FD10B16FF47A70F6E701A92046FEF723
:104C00009DFD10B1B748801EEEE7D4E90121914225
:104C100001D1012100E000210846FEF72DFD9DF89D
:104C20000400E1E7F8B504460D4616461F466946FE
:104C30002046FEF71AFE10B1AA480A38F8BD2946E8
:104C40002046FEF7DFFD10B1A6480B38F6E72868CE
:104C500000F0F6FE801C0099081A009031462046AC
:104C6000009AFEF77DFD10B19E480C38E6E70098EB
:104C70003860D4E90121914201D1012100E00021F5
:104C80000846FEF7F9FC0020D8E77CB506460C463E
:104C9000154601A93046FEF7E8FD10B191481438D9
:104CA0007CBD69463046FEF749FD10B16FF47F7058
:104CB000F6E79DF80000802807D121463046FEF730
:104CC000A1FD20B187481638EAE700202060294678
:104CD0003046FEF733FD10B182481738E0E7002078
:104CE000DEE7F8B504460D4617461E4669462046DF
:104CF000FEF788FD10B17B481A38F8BD0098FDF723
:104D0000DDFD2860009800F050FC286810B9754857
:104D10001B38F2E731462046FEF759FD10B17148C5
:104D20001C38EAE7394620463268FEF719FD10B113
:104D30006C481D38E1E7D4E90121914201D10121FC
:104D400000E000210846FEF797FC0020D5E72DE99A
:104D5000F04104460F4616461D4639462046FEF7EA
:104D600051FD18B15F481A38BDE8F0812946204648
:104D7000FEF72DFD10B15B481C38F5E731462046A3
:104D80002A68FEF7EDFC10B156481D38ECE7D4E96F
:104D90000121914201D1012100E000210846FEF7E6
:104DA0006BFC0020E0E72DE9F843054689461646EE
:104DB0001F46DDF8208069462846FEF756FD18B1EB
:104DC00048481F38BDE8F88331462846FEF7E4FC22
:104DD00004460CB12046F5E7328849462846FEF7DE
:104DE000BFFC10B13F481F38ECE741462846FEF7AC
:104DF000EEFC04460CB12046E4E739462846D8F8D4
:104E00000020FEF7ADFC10B136481F38DAE7D5E9CF
:104E10000121914201D1012100E000210846FEF765
:104E20002BFC0020CEE718B5044669462046FEF765
:104E30001CFD10B12B481E3818BDD4E90121914248
:104E400001D1012100E000210846FEF715FC0020F9
:104E5000F2E72DE9F04104460D460027B84600264A
:104E6000FEF720FC0746284600F0EAFD06468021B2
:104E70003846FEF723FD9CB1204600F0E1FD001D01
:104E8000B11C00EB010841463846FEF7AFFD80211A
:104E90003846FEF713FD21463846FEF788FD09E047
:104EA00006F1040841463846FEF7A0FD00213846C9
:104EB000FEF704FD05213846FEF700FD2946384679
:104EC000FEF775FD3846BDE8F08170B504460D4625
:104ED00029462046FEF796FC10B10248183870BDEE
:104EE0000020FCE718FCFFFF2DE9F04180460E464C
:104EF0001446EE4800F0A4FD07463946EB4800F0A2
:104F0000C2FE0020EA49086000250AE000BFE94827
:104F1000008810F0400FFAD0705DE649091D088046
:104F20006D1CA542F2D31420FBF71EFE2046BDE8FF
:104F3000F0812DE9F047B6B00027FEF7B3FB1490DF
:104F400000210491059100200390DBA000680290ED
:104F50008846C825CCE00026FBF75DFD0646002EFE
:104F600006DC2DB16420FBF7FFFD681EC5B2BFE073
:104F7000002D00DCBFE03220FBF7F6FDFBF74BFD18
:104F80000646314615A8FBF749FD324615A9149887
:104F9000FEF7AFFCA9E01498FFF7EBFD139000B902
:104FA000A4E01398FFF70DFE04462046902C62D033
:104FB00006DC202809D030280CD080287ED116E0CD
:104FC000A02862D0D028F9D185E01398FFF704FE1D
:104FD000814686E010AB11AA12A91398FFF722FEB2
:104FE000129800F0E2FA119800F0DFFA79E035AAA1
:104FF00012A91398FFF749FEE0BB9DF8D4000128E1
:1050000007D09DF8D400032803D09DF8D4000428CD
:105010000AD104AB06AA9DF8D4001399FFF7F7FB59
:10502000069800F0C2FA22E09DF8D400022813D1BD
:105030000DAB0EAA0FA91398FFF753FE0F98FEF7BA
:1050400005F88246504600F0B0FA0F98FCF731FEA2
:105050000E9800F0AAFA0AE09DF8D400052806D1BF
:1050600003A91398FFF731FF039800F09EFA1298F6
:1050700000F09BFA35E000200C900CA91398FFF784
:105080001EFC0C9800F091FA2BE008A809AB0AAAC4
:105090000BA900901398FFF786FED8B902A800F07C
:1050A000CFFC8046434602AABDF828100B98FFF7B4
:1050B000F0FC0790079806C8002000E00FE0FFF71B
:1050C00013FF07A8FEF700FB0B9800F06EFA099893
:1050D00000F06BFA05E01398FFF7A5FE01E0012749
:1050E00000BF00BF13A8FEF7EFFA54E700BF00BFF0
:1050F000002F3FF430AF00BF14A8FEF7E5FA36B03A
:10510000BDE8F0872DE9FC4104460D461427002632
:105110006AA00068009029462046FEF78FFC0190A7
:10512000019808B9BDE8FC810198416864A000F0CD
:1051300083FA4FF47A7261A16AA000F055F94FF436
:105140007A7272A174A000F04FF94FF47A7276A1CE
:1051500076A000F049F9784908700846017877A0F0
:1051600000F06AFA0198016879A000F065FA0198E8
:1051700006C80020FFF7B8FE06464FF4FA70FBF7AA
:10518000F3FC314675A000F057FA01A8FEF79CFA2F
:1051900000207749088000BFC4E72DE9F043B3B091
:1051A000804689461446142500264FF47A7243A19E
:1051B0004CA000F019F94FF47A7254A156A000F0F7
:1051C00013F94FF47A7258A158A000F00DF95A491A
:1051D00008700846017859A000F02EFA2246654969
:1051E00001A800F035FA6422002101A800F0FCF8C3
:1051F000614800F025FC07463A465F490020FFF76A
:1052000073FE33B0BDE8F08308B540F239125B4954
:105210005BA000F011FAFFF76DFC00904FF47A727A
:1052200041A159A000F0E0F8009806C80020FFF75F
:105230005BFE3220FBF798FC6846FEF745FA00203B
:105240004B49088020215448FCF759F808BD00B5A7
:105250008BB00020009001905048038850A200219C
:105260000320FEF743FF029002984FA1426803A873
:1052700000F0EEF94FF47A722BA103A800F0B4F815
:105280004D490870029806C80020FFF72DFE322015
:10529000FBF76AFC02A8FEF717FA002034490880E1
:1052A00020213D48FCF72DF80BB000BD8008002000
:1052B00040000020004800406F6B00004F4B000092
:1052C00073656E6420636F6E6E65637420746F2007
:1052D0007365727665722C2062797465733A202545
:1052E000640A000041542B43495053544152543DE9
:1052F00022544350222C223138332E3233302E3474
:10530000302E3333222C383000000000434F4E4EF5
:10531000454354204F4B000061742B6369707374D4
:10532000617475733F0000003E00000041542B4340
:10533000495053454E4400007A00002041542B430D
:10534000495053454E442D2D2D2D2564000000005D
:10535000706F6365743A2025730A0000646F73658B
:105360006E645F666C61673A2025640A2020000045
:105370004400002038930008740000202C9300089B
:1053800025732025640A000041542B43495053459E
:105390004E443D320000000000180140780000201B
:1053A000746573740000000041542B434950534509
:1053B0004E443D25640000007B00002070B504468B
:1053C00000254B48008810F4004F0BD000204849BE
:1053D0000988C1F30E01474A50542146104600F097
:1053E000F9FA0546284670BDF8B504460E4615463E
:1053F000002700203E490880FF2C09D800BF3E4806
:10540000008810F0400FFAD03B49091D0C8003E0E2
:1054100021463AA0FBF7DCFA06B3FDB117E00A20FB
:10542000FBF7A2FB3248008810F4004F0FD0304643
:10543000FFF7C4FF40B12F4823462E223149009088
:1054400031A000F0F9F806E0002029490880681E24
:1054500080B20500E3D100BF05B901273846F8BD89
:105460000146302905DB392903DCA1F13000C0B247
:105470007047412905DB462903DCA1F13700C0B2A2
:10548000F6E7612905DB662903DCA1F15700C0B20C
:10549000EEE70020ECE70146092903DC01F13000CA
:1054A000C0B270470A2905DB0F2903DC01F1370080
:1054B000C0B2F6E73020F4E710B5642218A119A0B5
:1054C000FFF792FFC82216A117A0FFF78DFF4FF438
:1054D0007A7213A116A0FFF787FF4FF47A7210A11A
:1054E00016A0FFF781FF10BD10B5FFF7E5FF10BD57
:1054F00044000020800800200048004025730D0A69
:1055000000000000F7930008257320256420636DD8
:10551000643A25732C7273703A25730A00000000F8
:105520004F4B000041540000415445300000000042
:1055300041542B43474154543D31000041542B43C7
:10554000474143543D312C310000000070B5064600
:1055500000F020FE056806F10B0020F00704B442BD
:105560009CBF002070BD2B466A68BAB11068A0428B
:1055700010D304F1080188423CBF5068586007D33B
:105580005168101941601168091B0160586014606E
:10559000101D70BD13465268002AE7D121462846E7
:1055A00000F004FE0028DED170BD70B50446051F72
:1055B00000F0F0FD0068002C14BF446870BD002CA2
:1055C00018BFA54284BF20466468F8D801680A184D
:1055D000AA4218BF456003D12A68054611440160FC
:1055E00028684119A1421CBF6C6070BD6168696088
:1055F00021680844286070BD10B5044600F0C2FD63
:105600000068005DC00602D504F1200010BD2046F0
:1056100010BD00001CB50C46064B7B44694600904B
:10562000204601F0C8F804460020694601F0D6F88B
:1056300020461CBDBF1100000FB4044910B503AAD9
:10564000029801F0E7F810BC5DF814FB5000002050
:105650000FB41CB5084B06AA7B4469460090059818
:1056600001F0A9F804460020694601F0B7F8204689
:105670001CBC5DF814FB00008111000070B50446ED
:1056800085690068C10601D5302600E02026C007E4
:1056900008D070BDD4E9012130469047206A00F15E
:1056A000010020626D1EF5D570BD70B50446856998
:1056B0000078C00708D170BDD4E9012120209047AF
:1056C000206A00F1010020626D1EF5D570BD70B535
:1056D0000C460546012A05D02878800600D5EA69DF
:1056E000002302E0012305E05B1C934202D2E05C50
:1056F0000028F9D1A869E618C01AA861286A1844D8
:1057000028622846FFF7BAFF04E0D5E9012114F822
:10571000010B9047B442F8D32846FFF7C6FF70BD8F
:105720002DE9F0410646002410687529314616A57A
:1057300011D000F0A7FD002803DAC0F1000013A586
:1057400007E031688A0701D511A502E0490704D5B1
:1057500010A5012401E000F09EFD00210A2306F1BE
:10576000240707E0B0FBF3F203FB1200303078545B
:105770001046491C0028F5D123462A463046BDE88C
:10578000F04100F091BD0000000000002D0000007D
:105790002B00000020000000F0B40D460188090530
:1057A00002D5234C7C4402E0214C7C440E34002181
:1057B00000F124060BE002F00F074FEA1212E75D3A
:1057C00042EA03724FEA1313775401F1010152EADE
:1057D0000307F0D102780023120704D5702D06D0FC
:1057E00009B1113402232246F0BC00F05DBD103433
:1057F0000123F8E770B504460D462146106800F015
:105800004AFD024629462046BDE870400023C3E712
:10581000D21D22F00703D3E90023BDE70368126815
:1058200043F0200303600823C3610023B4E70000B2
:10583000573C00002DE9F05F894604464FF0000A0E
:10584000DFF878B1FB44C0F820A02046E168884723
:10585000002875D0252806D0D4E901219047206A78
:10586000401C2062F1E700265F462046E168884739
:105870002028054608DB312D06D207EB050010F87D
:10588000200C08B10643F0E7B00701D526F0040666
:10589000C4F81CA00027C4F818A02A2D09D0284657
:1058A00002F0A0F838B304EB8708303DC8F8185070
:1058B00019E059F8041B204604EB87029161E16866
:1058C0008847012F054618D1E069002820DA26F024
:1058D00020061DE0D8F8180000EB800005EB400022
:1058E0003038C8F818002046E1688847054602F0BD
:1058F00079F80028EED1012F0AD02E2D08D12046AC
:10590000E16888477F1C0546022F46F02006C4DB6D
:10591000A069002803DA404246F00106A061F007C2
:1059200001D026F010066C2D0BD0682D09D04C2D1F
:1059300039D06A2D35D0742D35D07A2D33D016E07C
:1059400038E0E1682F4620468847B842054609D12D
:105950006C2F26D04FF48060E168064320468847CC
:10596000054604E06C2F1AD04FF4807006430DB347
:10597000A5F14100192802D8203546F400664A46B0
:105980002946204626604E46FAF70CFC80B10128D5
:105990000BD0F61D26F0070000F1080955E740205E
:1059A000E4E78020D8E70020D6E706F104094CE7B9
:1059B000284651E7206ABDE8F09F0000DF3B000069
:1059C000401ECAB210F8011F8A4202D00029F9D144
:1059D0000020704730B505460B462A4613F8014BA8
:1059E00012F8010B08B1A042F8D01CB1002802D077
:1059F0006D1CF1E7284630BD40EA0103024630B590
:105A00009B0710D14FF0013400E008C208C91D1BEC
:105A10009D4315EAC41FF8D013F0FF0102F8011BE3
:105A20000DD01B0AF8E711F8013B002B02F8013BEF
:105A300005D011F8013B002B02F8013BF3D130BD3A
:105A400010B5431C02E010F8011B71B18107FAD1B7
:105A50004FF0013202C88C1A8C4314EAC211F9D0FB
:105A6000C01A0A0603D0C01E10BDC01A10BD0A0419
:105A700001D0801E10BD0902FCD0401E10BD40EABE
:105A8000010370B59B072ED14FF00136042A2AD3AB
:105A900008C810C9121F9D1B9D4315EAC61517D0D3
:105AA000D8B2E1B2401A50EA056110D198B2A1B261
:105AB000401A50EA05410AD123F07F4024F07F418B
:105AC000401A50EA052102D1180EA0EB146070BDF7
:105AD000A342DBD018BA21BA884201D9012070BD97
